:02000004080AE8
:1000000000000A08C8980A0800000500060005015B
:080010000402E80300000000F7
:100018003C810A0809480A4908B5884205D0094AB6
:10002800824202D0121A07F009FC0748074A002149
:10003800121A07F00EFC064808BD00BF0003002096
:10004800E4970A08BC030020BC03002040160020E7
:100058004016002070B506F01BF9074B074C1E46EA
:10006800E41AA4080025A54204D056F8253098477C
:100078000135F8E770BD00BF1C970A08D8970A0831
:1000880001F03ABB08B501F0BFF9BDE8084006F039
:10009800C1B805F033BA05F031BA05F037BA000037
:1000A80008B5034A00210C2005F07CF9FEE700BFE3
:1000B80039500A080078B0FA80F0400970470123E7
:1000C8000370704710B51821044604F0E5FA08B922
:1000D80005F054FB2046012104F0B5FABDE81040B4
:1000E800142005F007BE0000024B00221A7004F02D
:1000F80027BF00BFC003002010B50446282103F025
:1001080058FF204602F035FE2046BDE8104002F0B8
:1001180067BE2DE9F34105460E461746984600246A
:10012800A1B2CDF800803B4632462846013403F0A0
:1001380011FF182CF4D1284602B0BDE8F04102F0B6
:100148004FBE37B504469DF81850009503F002FFDE
:10015800204603B0BDE8304002F042BE10B5044668
:10016800282103F026FF2046BDE8104002F038BEE3
:1001780013B5838A04469B0708D107F09BFB03232A
:1001880090FBF3F303EB4303C31AE382E38A012BE7
:1001980013D009D3022B17D16422A18A00925023CD
:1001A8002046FFF7CEFF0FE0E2230093A18A2B231E
:1001B8008A222046FFF7C5FF06E00A23A18A00939A
:1001C80064222046FFF7BDFFA38A01339BB2182B98
:1001D80088BF0023A38202B010BD04F0B1BE38B5B9
:1001E800054600240121112006F040FD01212C7054
:1001F800112006F04CFD4FF4FA7005F07BFD214606
:10020800BDE83840112006F042BD017881F00101B7
:100218000170112006F03BBD0170112006F037BDBA
:1002280004F08EBE016070472DE9F0410446064691
:1002380054F8087B88B03B6803ADD3F82880084B96
:1002480002930FCC0FC5236805222B70B38B06F1E0
:1002580025010093384602ABC04708B0BDE8F081DD
:1002680074940A082DE9F0410446064654F8087BC0
:1002780088B03B6803ADD3F82880084B02930FCCB5
:100288000FC5236805222B70B38B06F1200100935C
:10029800384602ABC04708B0BDE8F08174940A083C
:1002A8002DE9F04788B006460D468B6802AF03F18A
:1002B80004080B3323F00703ADEB030D0DF1080918
:1002C80028238DF8083089F80130322389F8023064
:1002D8003C2389F8033000231FFA83FA5C1CAB68BF
:1002E800534509D95146284605F030FB0378CA44DE
:1002F8008AF804302346EFE7344654F808EB3D1DEE
:10030800DEF80030D3F828A0084B3B600FCC0FC5AF
:10031800236842462B70B38B4946009370463B4690
:10032800D0471837BD46BDE8F08700BF74940A0867
:1003380004F006BE10B5044600238373C373037428
:10034800437402F0F1F8204602F02CFABDE81040A0
:100358004FF4FA7005F0CEBC38B5044602F0C2FC82
:1003680008B9002038BD204602F0CCFC0028F8D09F
:100378006178A278E3782579E429A173E27323747C
:10038800657408D13C2A06D1262B04D1A5F1EB03CC
:100398005D425D4100E00025204602F07AFC2046DF
:1003A80002F09CFC284638BD04F0CABD10B54FF4D5
:1003B800165004F0A9FB4FF4E13004F06BFC0C4834
:1003C80004F060FB642005F095FC0A4C0A4804F030
:1003D80059FB642005F08EFC204604F053FB642092
:1003E80005F088FC2046BDE8104004F04BBB00BF78
:1003F80050810A085F810A0858810A08014804F0F8
:1004080041BB00BF66810A0808B5044804F03AFBFE
:10041800BDE80840024804F035BB00BF6D810A08FA
:1004280077810A0808B5044804F02CFBBDE80840A9
:10043800024804F027BB00BF80810A088A810A08A5
:10044800943004F067BA000008B5044804F01AFBB9
:10045800BDE80840024804F015BB00BFA3810A08A4
:10046800AB810A0800F5266004F070BB04F068BD93
:100478000B4601600121017198B206F0F7BB38B54F
:10048800037904460D4663B10121008806F0FFFB9D
:10049800284605F02FFC20880021BDE8384006F0EA
:1004A800F6BB38BD04F04CBD70B504461E46049D2D
:1004B80012B209B203F0B6FFF1B2204603F0B5FF5D
:1004C80029682046BDE8704005F074BA04F038BDCC
:1004D80010B5044601F0C4FB2046002101F0A2FA41
:1004E8000121204601F0B8FF04F0DAFD4FF478410D
:1004F800204601F097FA04F0D3FD4FF4FC61204642
:1005080001F090FA04F0CCFD1F21204601F08AFA90
:1005180004F0C6FD2046002101F084FABDE8104031
:1005280004F0BEBD10B50446002101F07BFA282274
:100538006921204603F076FF0421204603F075FF69
:1005480005F09EFB0A220146204605F094FA36493A
:10055800204605F02FFA05F09DFB092803DC3349F6
:10056800204605F027FA05F095FB0A2201462046A9
:1005780005F081FA0321204603F057FF6422552134
:10058800204603F04FFF05F099FB0A22014620465A
:1005980005F071FA2649204605F00CFA05F084FBAF
:1005A8000A220146204605F066FA1F49204605F052
:1005B80001FA05F08BFB0A220146204605F05BFA9A
:1005C80005F07CFB0A2811DD8C221921204603F056
:1005D80029FF1849204605F0EDF928212046AA22CE
:1005E80003F020FF1449204605F0E4F905F066FB06
:1005F800022817D105F058FB0E2813D18C2220466B
:10060800192103F00FFF0D49204605F0D3F92046C4
:100618002821AA2203F006FF2046BDE81040084919
:1006280005F0C8B910BD00BFB2810A0890810A0858
:10063800B4810A08B6810A08C6810A08D4810A0862
:10064800E5810A0838B504460D46002101F0EAF9AB
:1006580000221146204603F0E5FE2046032103F060
:10066800E4FE29682046BDE8384005F0A3B910B576
:1006780004F01CFF034638B1BDE8104000231A46B9
:100688001946184604F0F2BE0246014604F0E6FE9A
:10069800BDE8104004F002BF08B500221046022150
:1006A80004F0CCFEBDE8084000221146104604F0D4
:1006B800E5BE04F045BC7047704703681847012A37
:1006C80002D0022A02D004E0016002E00B6800B107
:1006D8000360002070477047704770470148FFF774
:1006E80094BD00BFEB0F00200148FFF787BE00BF95
:1006F800400500200148FFF715BF00BFEC0F0020A0
:10070800034B1B7813B10348FFF70CBF704700BFBA
:10071800EA0F0020EC0F002008B50A4B01220A4816
:100728001A70FFF77FFE002319461A460748FFF79D
:10073800F0FC07480021FFF76FFDBDE808400548B9
:10074800FFF790BD20100020400500207404002011
:10075800EB0F00208C040020FFF789BF10B5074C71
:10076800074B002220461A70FFF748FE2046FFF785
:100778004BFEBDE810400348FFF756BD400500207A
:10078800201000208C0400201FB54849C022A1F188
:10079800480004F05DFB4549684605F098F844496F
:1007A800684605F0C1F828B34249434804F058FBAD
:1007B800642005F09FFA41493F4804F051FB64204A
:1007C80005F098FA3E493C4804F04AFB642005F0DD
:1007D80091FA3C49384804F043FB642005F08AFA52
:1007E8003949354804F03CFB642005F083FA374862
:1007F800FFF704FE3649684605F096F858B33549C0
:100808002D4804F02DFB642005F074FA32492A487B
:1008180004F026FB642005F06DFA3049264804F000
:100828001FFB642005F066FA2D49234804F018FBE5
:10083800642005F05FFA2B491F4804F011FB64207F
:1008480005F058FA28491C4804F00AFB642005F012
:1008580051FA04F093FF2549684605F065F868B138
:100868002349154804F0FCFAFFF716FF4FF42F70E0
:1008780005F040FA1F49104804F0F2FA1E4968468C
:1008880005F052F838B11D490B4804F0E9FA1C4943
:10089800094804F0E5FA1B491B4804F0E1FA6846E8
:1008A80004F0CEFF05B05DF804FB00BFD8070020B8
:1008B80012820A0817820A08B40700201F820A0851
:1008C80028820A0832820A083D820A084005002068
:1008D80049820A084F820A0860820A0872820A0856
:1008E80085820A0899820A08AE820A08C4820A0820
:1008F800CF820A08F1820A0817830A081C830A08AB
:1009080027830A08E8920A089007002010B50123F7
:1009180003714369044613B183690C309847002377
:10092800237110BD10B50446054B036064330361A1
:1009380005F04EFA204605F087FB204610BD00BFA3
:10094800E8930A0810B5044602F0E9F9204610BDFC
:1009580007B5002302A941F8043D04F0B9FB20B90A
:10096800019810B103689B68984703B05DF804FBD1
:1009780000B5244B89B01878234A08B9107890B18B
:1009880019781378DBB2002938D0002B36D01F49EC
:1009980004A804F09CFF04A91D48FFF753FE04A80F
:1009A80004F04EFF2AE0684604F091FF694604A867
:1009B80004F0AFFF04A91648FFF744FE04A804F0AA
:1009C8003FFF1448FFF71AFD0099134804F048FA4E
:1009D800124B01224FF4967111481A73FFF74FFD1D
:1009E800694604A804F095FF04A90E48FFF758FCCF
:1009F80004A804F025FF684604F022FF09B05DF85A
:100A080004FB00BFEA0F00202010002039830A08E9
:100A1800EC0F0020400500200406002040100020B4
:100A2800C40300208C04002013B50446054B0A4675
:100A38001B7805498DF800303C2305F073FD2046EE
:100A480002B010BD040400204B830A0807B5002338
:100A5800019300931A4604F039FD03B05DF804FBD6
:100A68007047704710B58368044613B103220146E6
:100A78009847204610BD0000F0B504468E4615493B
:100A8800002585B0057185604561016002AF92E877
:100A9800030087E8030004F10C0696E8030082E8E7
:100AA800030097E8030086E8030091686069906096
:100AB8006161D168A069D060A1618DE82800064A0B
:100AC8002346714604F1080004F0F2FA204605B006
:100AD800F0BD00BFFC810A0859090A0807B58068FB
:100AE800002338B18DE80A00022104F0F9FAB0FABF
:100AF80080F0400903B05DF804FB73B51446064660
:100B08000D4600222146FFF7E9FFB068002340B1F7
:100B1800019300952246194604F0E2FAB0FA80F0F3
:100B2800400902B070BD000038B50E4B04460360A2
:100B380083688BB100226FF00041FFF7CFFF237964
:100B480003F0FF051BB1012005F0D4F8F7E72946AB
:100B5800A06804F0B5FAA56004F10C00FFF782FF65
:100B6800204638BDFC810A0810B50446FFF7DCFFB3
:100B78002046FFF792FA204610BD10B50446FFF74D
:100B8800D1FE2046FFF789FA204610BD2DE9F04F27
:100B980004468BB000250570457029460095CB4B5F
:100BA8000322043003F0C0FE04F12803029329460F
:100BB8000095C74B0522029803F0B6FE04F14C03DA
:100BC8000393012211460095C24B039803F0ACFE33
:100BD80004F1700304930095BF4B0122032104988C
:100BE80003F0A2FE0095BD4B0222042104F19400FB
:100BF80003F087FE0095BA4B0322042104F1A000FC
:100C080004F01CF929460095B64B062204F1C400ED
:100C180004F014F904F1E8030593DFF8509329462A
:100C28000095B14B0222059803F07EFE4B460095D5
:100C38000122112104F5867004F000F90095AB4BF0
:100C480001220E2104F5987004F0F8F804F5AA734F
:100C580006930095A64B01221721069803F064FE1F
:100C680004F5BC7307930095A24B0322172107983C
:100C780003F05AFEA04F04F5CE73089300953B4647
:100C880004221721089803F04FFE9C4E04F5E073E8
:100C9800099304F5F27B334600950522172109983C
:100CA80003F042FE04F5027A0095954B06221721BF
:100CB800584603F039FE04F50B780095914B07224E
:100CC8001721504603F030FE00958F4B262216213F
:100CD800404603F029FE00958C4B0222162104F5AC
:100CE800147004F0ABF84B4600952822162104F541
:100CF8001D7004F0A3F82946C02204F5267006F0FA
:100D0800A8FD3B4600950522012104F5567003F025
:100D18000BFE334600950622012104F55F7003F0AF
:100D280003FE00957A4B0C22012104F5687003F04C
:100D3800FBFD04F57A790095764B0D22012104F527
:100D4800717003F0F1FD0095734B0B2201214846A9
:100D580003F0EAFD0095714B01220B2104F20C40CF
:100D680003F0E2FD00956E4B02220B2104F586602C
:100D780003F0DAFD00956B4B03220B2104F254407B
:100D880003F0D2FD0095684B04220B2104F58F6017
:100D980003F0CAFD0095654B05220B2104F29C4027
:100DA80003F0C2FD0095624B06220B2104F5986002
:100DB80003F0BAFD00955F4B07220B2104F2E440D3
:100DC80003F0B2FD00955C4B08220B2104F5A160ED
:100DD80003F0AAFD0095594B01220C2104F22C5076
:100DE80003F0A2FD0095564B02220C2104F5AA60DF
:100DF80003F09AFD0095534B03220C2104F2745022
:100E080003F092FD0095504B04220C2104F5B360C9
:100E180003F08AFD4D4E00954D4B05220C2104F23E
:100E2800BC5003F081FD00954A4B06220C2104F5C5
:100E3800BC6003F079FD3346009507220C2104F2CB
:100E4800046003F0B1FD3346009508220C2104F537
:100E5800C56003F0A9FD334600953F4E09220C21D9
:100E680004F24C6003F0A0FD00953C4B01220F21D9
:100E780004F5CE6003F038FD3346009504220F21B7
:100E880004F27C6003F0DAFF0095354B03220F2152
:100E980004F5D46003F028FD3346009505220F21A0
:100EA80004F2AC602F4F03F0C9FF00952E4B0222CD
:100EB8000F2104F5DA6003F017FD3346009506228A
:100EC8000F2104F2DC6003F0B9FF51E058830A08EF
:100ED8005B830A085E830A0869830A0876830A081E
:100EE80079830A0881830A0884830A088A830A089E
:100EF800A4830A0890830A0893830A0896830A0839
:100F080099830A089C830A089F830A08A3830A080E
:100F1800A7830A08AA830A08AE830A08B1830A08C5
:100F2800BC830A08C7830A08D2830A08DD830A0833
:100F3800E8830A08F3830A08FE830A0809840A0872
:100F480014840A081F840A082A840A084B840A0899
:100F580035840A0840840A085A840A0857840A080B
:100F68005D840A0863840A0860840A0887830A087B
:100F78003B4607220F2104F5E06003F0E4FC33460A
:100F8800009508220F2104F2247003F057FF674BE5
:100F980009220F2104F5E96003F0D5FC33460095DA
:100FA8000A220F2104F26C7003F048FF604B0B22F9
:100FB8000F2104F5F26003F0C6FC334600950C22BD
:100FC8000F2104F2B47003F039FF3B460B221021C5
:100FD80004F5FB6003F0B7FC334600950C221021A2
:100FE80004F2FC7003F02AFF3B460D22102104F5A1
:100FF800026003F0A8FC334600950E22102104F687
:10100800440003F01BFF3B460F22102104F6680042
:1010180003F099FC102233461146009504F68C0023
:1010280003F00CFF3B461122102104F50B6003F07E
:101038008AFC334600951222102104F6D40003F0EE
:10104800FDFE3B461322102104F6F80003F07BFC5A
:10105800334600951422102104F61C1003F0EEFE0E
:101068003B461522102104F5146003F06CFC33464E
:1010780000951622102104F6641003F0DFFE3B46AB
:101088000122102104F6881003F05DFC3346009518
:101098000222102104F6AC1003F0D0FE3B460322D6
:1010A800102104F51D6003F04EFC33460095042220
:1010B800102104F6F41003F0C1FE3B46052210216E
:1010C80004F6182003F03FFC334600950622102151
:1010D80004F63C2003F0B2FE2046069BC4F870BA22
:1010E800C4F8603A079BC4F874AAC4F8643A089B29
:1010F800C4F8789AC4F8683A099BC4F8908AC4F886
:101108006C3A059BC4F8945AC4F87C3A231DC4F879
:10111800803A029BC4F8843A039BC4F8883A049B3B
:10112800C4F88C3A0BB0BDE8F08F00BF66840A089B
:1011380069840A0808B500210748FFF76DF80023FD
:101148001A46F0210548FEF7E4FF0548FFF77CF949
:10115800044B01221A7008BDEB0F00207404002014
:1011680040050020EA0F002010B5074C0748FEF79D
:10117800F5FF2046FFF748F92046FFF73FF9044BF3
:1011880000221A7010BD00BF400500207404002022
:10119800EA0F002013B53E4B1B7813B93D4B1B7863
:1011A80093B33D4804F092FF00286FDD00243A48CD
:1011B80004F0BAFD01AB18550134042CF7D19DF8A1
:1011C8000430142B0ED19DF80530142B5ED19DF8F8
:1011D80006301E2B32D19DF807305A2B2ED1FFF73F
:1011E800A9FF2BE0322B13D19DF80530322B4DD1BE
:1011F8009DF806301E2B2ED19DF807305C2B2AD186
:101208002648FFF702F826E02548FEF7B1FFC8E7B1
:101218000C2B3BD19DF805300C2B37D19DF80630AF
:101228000C2B33D19DF807300C2B2FD11D484FF4D0
:10123800967102B0BDE81040FFF721B99DF806305D
:101248001E2B23D19DF807305B2B1FD102B0BDE8C0
:101258001040FFF789BF9DF806301E2B07D19DF877
:1012680007305B2B03D101210C48FEF7D5FF9DF811
:1012780006301E2B0AD19DF807305A2B06D1074895
:10128800002102B0BDE81040FEF7C6BF02B010BD95
:1012980020100020EA0F0020BC040020EB0F0020E3
:1012A80074040020C403002008B50A48FFF754F866
:1012B80070B1094B1A7882F001021A701B781BB1C1
:1012C800BDE80840FFF736BFBDE80840FFF74CBF50
:1012D80008BD00BFD80F0020EA0F00201FB56846E0
:1012E80004F0F5FA3649684604F01EFB10B1354B98
:1012F80000221A703449684604F016FB10B1314BCD
:1013080001221A703149684604F00EFB30496846DC
:1013180004F00AFB2F49684604F006FB18B1C821FF
:101328002D48FFF7ACF82D49684604F0FDFA10B1D6
:101338002B48FEF76AFF2B49684604F0F5FA08B116
:1013480004F01CFA2849684604F0EEFA90B1274BDD
:10135800012227481A70FFF765F8002319461A4634
:101368002448FEF7D6FE1E480021FEF755FF224806
:10137800FEF778FF2149684604F0D6FA58B11B4BAE
:1013880000221B481A70FFF739F81948FFF73CF894
:101398001948FEF749FF1A49684604F0C5FA08B12A
:1013A800FFF7C8FE1749684604F0BEFA08B1FFF710
:1013B800DBFE684604F044FA05B05DF804FB00BFA4
:1013C8006C840A080003002075840A087D840A08D2
:1013D80084840A0817830A08C40300208A840A0838
:1013E800EB0F002094840A089B840A082010002030
:1013F80040050020740400208C040020A1840A0801
:10140800A8840A08A6840A0838B503F021FE204CEF
:10141800204B60601B7813B91F48FFF723F803F0CF
:1014280017FE1E4B186004F031F803F011FEA0609F
:101438002388174A01339BB2238023889BB2B3F5D4
:10144800966F08D1137B00251BB91548FFF76AF87A
:1014580000E01573258023880D4A9BB2B3F5167FEB
:1014680007D1137B1BB90E48FFF75CF801E0002396
:1014780013736368A16832338B42054A07D95368EE
:1014880090683233181ABDE8384004F033BC38BDD0
:1014980040100020EA0F00204005002044150020DD
:1014A800EC0F002010B5264C2046FEF77FFF221DCA
:1014B8001046244903F0F1FC04F50B72104622494A
:1014C80003F0EBFC04F128021046204903F0E2FC8B
:1014D80004F14C0210461E4903F0DFFC04F17002CF
:1014E80010461C4903F0D6FC04F57A7210461A49D6
:1014F80003F0D3FC04F502721046184903F0CDFC42
:1015080004F5F2721046164903F0C7FC04F5E072C0
:101518001046144903F0C1FC04F5CE721046124976
:1015280003F0BBFC04F5BC721046104903F0B5FC8F
:1015380004F5AA720E491046BDE8104003F0ADBC90
:101548004005002021070A0891070A08E5060A084D
:1015580061070A0865070A08C1060A08F1060A08A9
:1015680045170A0861170A087D170A0899170A0813
:10157800B5170A0870B53E4886B03E4C04F03CFBEF
:101588003D4DFFF78FFF10213C48FEF771FF0F21FB
:101598002046FEF755FF2846FEF7AEFD64231A469F
:1015A80019462846364DFEF7B4FD1E212046FEF7A3
:1015B80047FF2846FEF713FE01212846FEF72CFEBA
:1015C8004FF4FA7004F096FB284600212D4DFEF7E3
:1015D80023FE2D212046FEF733FF02AE2846FEF7F4
:1015E80077FF2949304604F072F914220223114684
:1015F80028460096FEF758FF304604F021F94621A8
:101608002046FEF71DFF2148FEF794FE552120468F
:10161800FEF716FF1E48FEF755FD5A212046FEF735
:101628000FFF012004F074FD00221146104604F05B
:101638007FFD0121002004F08EFD002004F068FDEC
:101648002846FEF76FFF64212046FEF7F9FE204684
:10165800104CFEF7D3FE002241F29A01204604F016
:1016680091FB21460C48FEF7DDFD06B070BD00BFBA
:101678000000E0C04005002074040020C4030020DE
:10168800EB0F0020EC0F0020AD840A08D80F0020D3
:1016980024040020BC0400208C04002008B500228B
:1016A8006FF000410448FFF728FA00226FF000416C
:1016B8000248FFF722FA08BD08040020CC030020E6
:1016C80008B507490748FFF7C1F907490748FFF771
:1016D800BDF9BDE8084006490648FFF7B7B900BF9D
:1016E80079090A08BB840A08690A0A08C0840A0832
:1016F800E5120A08C5840A0808B5FFF73BFFFFF79B
:10170800CDFFFFF717FDBDE80840FFF7D9BF38B593
:10171800046805467CB16368013B63605BB9236874
:1017280020469B689847A368013BA3601BB92368C0
:101738002046DB689847284638BD000007B50549AC
:101748006846FFF771F901A8FFF7E1FF03B05DF8FC
:1017580004FB00BFCD840A0807B505496846FFF7B2
:1017680063F901A8FFF7D3FF03B05DF804FB00BFDE
:10177800E1840A0807B505496846FFF755F901A845
:10178800FFF7C5FF03B05DF804FB00BFEF840A084C
:1017980007B505496846FFF747F901A8FFF7B7FFFE
:1017A80003B05DF804FB00BF05850A0807B50549C5
:1017B8006846FFF739F901A8FFF7A9FF03B05DF8FC
:1017C80004FB00BF18850A082DE9F047774B784ECF
:1017D80088B0784C00251D7003F0B2FB02230A2262
:1017E8001821304601F0EAFAB582F582224672499C
:1017F8003046724E05F0D2FA0421072203238DE801
:101808000E00304602230622052100F04DF930462D
:101818006B4E22466B4905F0C1FA02220C21304674
:1018280000F06AFEC6F80E50674EDFF8DC913046CD
:1018380002F02CFE22466549304605F0AFFA6448AE
:10184800FFF7A4F905F03CF9624B634E18601823C2
:101858000093A8220123C021301D05F015F841F29C
:101868007203F3615D4B5E491A79186886F8242083
:1018780053F8052F30621B79C6F8252086F82930E1
:101888003046584E224605F089FA304604F0BEFB31
:1018980022465549304605F081FA544BDFF86C81F1
:1018A800534F544E04AA049364212B464846069786
:1018B800CDF81C80FFF7E0F804A8FFF7D3F822461C
:1018C8003146484605F06AFADFF844914A4B04AAC3
:1018D8000493C8212B4648460697CDF81C80FFF78D
:1018E800CBF804A8FFF7BEF822463146484605F073
:1018F80055FADFF82091414B04AA04934FF47A710A
:101908002B4648460697CDF81C80FFF7B5F804A883
:10191800FFF7A8F822463146484605F03FFADFF8B7
:10192800F890374B04AA049342F210712B464846AC
:101938000697DFF8E8A0CDF81C80FFF79DF804A80B
:10194800FFF790F8224631464846DFF8D49005F074
:1019580025FA2B4604AA47F2305150460697CDF88F
:101968001090CDF81C80FFF787F804A8FFF77AF8E5
:1019780022463146504605F011FA0697214F2B466C
:1019880004AA4EF660213846CDF81090CDF81C8098
:10199800FFF772F804A8FFF765F822463146384683
:1019A80005F0FCF908B0BDE8F08700BF040400208A
:1019B80074040020BC0300204D090A08EC0F002025
:1019C800D80F0020DF060A0824040020E1060A08D0
:1019D80040050020B80400208C04002008820A0872
:1019E800E3060A08BC0400202D090A089D110A080C
:1019F800C7060A08310B0A08B1120A086B0A0A0856
:101A0800FD060A080805002008040020C3060A0885
:101A1800CC0300202405002024100020E803002027
:101A280009070A0813B5B0F90E200468019100925D
:101A38000022B0F90C30646A1146A04702B010BD0C
:101A4800704700007FB5024613790846956833B1A0
:101A58003DB90C4904B0BDE8704003F0ABBF0A4B78
:101A680000E00A4B167B0A4C0A49527B012E08BF3C
:101A78002146029201910095074A002103F0FDFFDB
:101A880004B070BD7D850A08E8920A086C850A08CA
:101A980075850A0879850A0893850A0810B50446E9
:101AA800FEF7FBFA204610BDF8B504461D460F4662
:101AB8001646F0214FF4A07202F0F2FB0C4B84F8AA
:101AC8002B7023609DF9203084F82C6084F82F3027
:101AD8009DF9183084F82E5084F830309DF91C3068
:101AE800204684F82D30002384F82A30F8BD00BF42
:101AF80038850A08F0B490F82A300D461BB1F0BCBE
:101B0800174803F02DBE174B08241A6880261C219D
:101B180090F92E3035429BB201FB03F302EB030729
:101B2800BF88D3584FEA560614BF1F835F8390F9C6
:101B38003030013C9BB201FB03F302EB0307BF8883
:101B4800D3581F8390F930309BB201FB03F302EBAB
:101B58000307BF88D3585F83DAD1F0BC704700BF52
:101B68002415002050100020F8B590F92C300646B6
:101B78001C249BB26343114D2A68D718BF88D358D9
:101B88005F8390F930309BB26343D718BF88D3582E
:101B98005F8390F92B309BB26343D718D358BA8828
:101BA8005A83FFF7A7FF96F92B309BB25C432B684B
:101BB8001A1992881B591A83F8BD00BF50100020CB
:101BC80030B590F82A3085B004460D467BB10F4BEE
:101BD8000F4A009302920023012269460D488DF8AE
:101BE80004308DF80C208DF80D3003F013FD002D16
:101BF80014BF212120212046FFF7B6FF94F82A3090
:101C080013B1044803F0DFFC05B030BD2C850A0889
:101C180080C3C90124150020F8B5064690F92C3078
:101C28001C249BB263430D4D2A68D718BF88D3582C
:101C38001F8390F92B309BB26343D718D358BA88C7
:101C48005A83FFF757FF96F92B309BB25C432B68FA
:101C58001A1992881B591A83F8BD00BF501000202A
:101C680030B5044690F92D0085B0002809DD012122
:101C780080B204F0FBFF94F92D00002180B205F03A
:101C880006F894F92C00012180B204F0EFFF94F9D2
:101C98002B00012180B204F0E9FF94F82A5035B1F5
:101CA80094F92B10E14889B203F081FC11E094F912
:101CB8003000012180B204F0D9FF94F92E000121EF
:101CC80080B204F0D3FF94F92F00294680B204F0C3
:101CD800CDFF94F92D00002818DD012180B204F011
:101CE800D6FF052004F006F894F92D00002180B2F3
:101CF80004F0CDFF142003F0FDFF94F92D0001211D
:101D080080B204F0C4FF962003F0F4FF94F82A3060
:101D18007BB1C74BC74A0093029200230122694650
:101D2800C2488DF804308DF80C208DF80D3003F082
:101D380071FCEF212046FFF717FF03212046FFF72C
:101D48006BFF80212046FFF767FF02212046FFF73F
:101D580063FFCF212046FFF707FF00212046FFF74A
:101D68005BFFC1212046FFF757FF30212046FFF7D0
:101D780053FFED212046FFF7F7FE64212046FFF7C9
:101D88004BFF03212046FFF747FF12212046FFF7AC
:101D980043FF81212046FFF73FFFE8212046FFF758
:101DA800E3FE85212046FFF737FF00212046FFF795
:101DB80033FF78212046FFF72FFFCB212046FFF77E
:101DC800D3FE39212046FFF727FF2C212046FFF7B5
:101DD80023FF00212046FFF71FFF34212046FFF78D
:101DE8001BFF02212046FFF717FFF7212046FFF7C8
:101DF800BBFE20212046FFF70FFFEA212046FFF710
:101E0800B3FE00212046FFF707FF00212046FFF719
:101E180003FFC0212046FFF7A7FE23212046FFF736
:101E2800FBFEC1212046FFF79FFE10212046FFF749
:101E3800F3FEC5212046FFF797FE3E212046FFF717
:101E4800EBFE28212046FFF7E7FEC7212046FFF7D3
:101E58008BFE86212046FFF7DFFE36212046FFF75E
:101E680083FE48212046FFF7D7FE3A212046FFF798
:101E78007BFE55212046FFF7CFFEB1212046FFF714
:101E880073FE00212046FFF7C7FE18212046FFF702
:101E9800C3FEB6212046FFF767FE08212046FFF75C
:101EA800BBFE82212046FFF7B7FE27212046FFF719
:101EB800B3FEF2212046FFF757FE00212046FFF728
:101EC800ABFE26212046FFF74FFE01212046FFF7F3
:101ED800A3FEE0212046FFF747FE0F212046FFF72B
:101EE8009BFE31212046FFF797FE2B212046FFF766
:101EF80093FE0C212046FFF78FFE0E212046FFF7A8
:101F08008BFE08212046FFF787FE4E212046FFF76B
:101F180083FEF1212046FFF77FFE37212046FFF799
:101F28007BFE07212046FFF777FE10212046FFF7AA
:101F380073FE03212046FFF76FFE0E212046FFF7B0
:101F48006BFE09212046FFF767FE00212046FFF7B8
:101F580063FEE1212046FFF707FE00212046FFF738
:101F68005BFE0E212046FFF757FE14212046FFF79F
:101F780053FE03212046FFF74FFE11212046FFF7AD
:101F88004BFE07212046FFF747FE31212046FFF789
:101F980043FEC1212046FFF73FFE48212046FFF7B8
:101FA8003BFE08212046FFF737FE0F212046FFF7AA
:101FB80033FE0C212046FFF72FFE31212046FFF784
:101FC8002BFE36212046FFF727FE0F212046FFF77C
:101FD80023FE11212046FFF7C7FD94F82A3013B1DC
:101FE800124803F0F0FA782003F084FE94F82A30BF
:101FF8007BB10F4B0F4A00930292002301226946DE
:102008000A488DF804308DF80C208DF80D3003F057
:1020180001FB29212046FFF7A7FD94F82A3013B1C8
:10202800024803F0D0FA05B030BD00BF24150020E7
:102038002C850A0880C3C9012DE9F0410446884669
:102048001F4616462A21BDF81850FFF78DFD4FEAA6
:1020580018212046FFF7E0FD5FFA88F12046FFF7D8
:10206800DBFD390A2046FFF7D7FDF9B22046FFF716
:10207800D3FD20462B21FFF777FD310A2046FFF7D5
:10208800CBFDF1B22046FFF7C7FD290A2046FFF72E
:10209800C3FDE9B22046FFF7BFFD2046BDE8F04189
:1020A8002C21FFF761BD00002DE9F0411746B0F97A
:1020B8000C2086B08A4205460E461C46BDF8308084
:1020C8005DDDB0F90E30BB4259DD0B19934290F833
:1020D8002A30C4BF521A14B27BB12A4B2A4A02933F
:1020E80004920023012202A928488DF80C308DF8AB
:1020F80014208DF8153003F08DFAB1B24B1EA4B23E
:10210800BAB2234400929BB22846FFF795FF2049B4
:102118004FEA18275FFA88F6884695F92C301C2272
:102128009BB25343086800EB030EBEF804E0C358A3
:10213800A3F818E095F92B309BB25343C218928844
:10214800C3585A8354B139462846FFF7D3FC013C9B
:1021580031462846FFF7CEFCA4B2F3E795F92B30B9
:102168009AB21C235343D8F80020D118D3588A8830
:102178001A8395F82A3013B1044803F024FA06B0FC
:10218800BDE8F0812C850A0880C3C9012415002008
:10219800501000202DE9F0471746B0F90C2086B002
:1021A8008A4204460E469846BDF93850BDF83C9020
:1021B8006DDDB0F90E30BB4269DD41449142C8BFC4
:1021C800C6EB020807EB0502C8BF0FFA88F89A4267
:1021D800C8BFDD1B90F82A30C8BF2DB27BB12D4B8C
:1021E8002D4A029304920023012202A92B488DF85C
:1021F8000C308DF814208DF8153003F00BFABAB2B4
:10220800B1B2501E4B1E284480B2434400909BB28A
:102218002046FFF711FF224894F92C3082461C22F1
:102228009BB2534301684FEA1926CF18BF88CB5891
:102238005FFA89F91F8394F92B309BB25343CA186C
:102248009288CB585A83002D10DD4746002F0ADDAF
:1022580031462046FFF74EFC013F49462046FFF72E
:1022680049FC3FB2F2E7013D2DB2ECE794F92B307F
:102278009AB21C235343DAF80020D118D3588A881D
:102288001A8394F82A3013B1044803F09CF906B075
:10229800BDE8F0872C850A0880C3C90124150020F1
:1022A80050100020F0B50F1E87B0044615461E4694
:1022B80050DBB0F90C30BB424CDD002A4ADBB0F9E8
:1022C8000E30934246DD90F82A307BB1224B234AE8
:1022D800029304920023012202A921488DF80C30B0
:1022E8008DF814208DF8153003F094F9AAB2B9B21C
:1022F800501C4B1C80B200909BB22046FFF79CFEFE
:1023080094F92C301C259BB26B43164F20463A6833
:10231800D1188988D358198394F92B309BB26B4311
:10232800D118D3588A88310A5A83FFF7E3FBF1B2F0
:102338002046FFF7DFFB94F92B309BB25D433B68E7
:102348005A1992885B591A8394F82A3013B10448B1
:1023580003F039F907B0F0BD2C850A0880C3C9011C
:1023680024150020501000202DE9F0411C46B0F93A
:102378000C3086B08B4205460F461646BDF83080B5
:102388005EDDB0F90E2096425ADA3319934290F87E
:102398002A30C4BF921B14B27BB12B4B2B4A029339
:1023A80004920023012202A929488DF80C308DF8E7
:1023B80014208DF8153003F02DF9B2B2501EA4B2D6
:1023C8002044BBB280B2194600902846FFF734FE7D
:1023D80020494FEA18275FFA88F6884695F92C3085
:1023E8001C229BB25343086800EB030EBEF804E0BE
:1023F800C358A3F818E095F92B309BB25343C21881
:102408009288C3585A8354B139462846FFF772FB5D
:10241800013C31462846FFF76DFBA4B2F3E795F976
:102428002B309AB21C235343D8F80020D118D35824
:102438008A881A8395F82A3013B1054803F0C3F83F
:1024480006B0BDE8F08100BF2C850A0880C3C90129
:10245800241500205010002030B590F82A3085B09F
:1024680004460D467BB11D4B1D4A00930292002382
:10247800012269461B488DF804308DF80C208DF830
:102488000D3003F0C7F836212046FFF76DFB05F045
:1024980003010229617607D003290ED0012901D052
:1024A800482102E0282109E088212046FFF7B4FBF3
:1024B800F023A3814FF4A07307E0E8212046FFF73B
:1024C800ABFB4FF4A073A381F023E38194F82A3087
:1024D80013B1044803F077F805B030BD2C850A081D
:1024E80080C3C9012415002008B502F029FD014B5D
:1024F800186008BD5010002038B504461546084637
:102508002173012104F0B2FB207B012104F0BFFB01
:1025180028466573012104F0A9FB607B002104F0C3
:10252800B6FB204638BD000010B5094C204603F024
:1025380039F82046102103F0FFF82046012103F066
:102548003CF82046BDE81040002103F039B800BF30
:1025580024150020F8B50F4616460446094D0021FB
:10256800007B04F094FB07F07E01284603F0F8F89E
:102578003146284603F0F4F8207B0121BDE8F840F5
:1025880004F085BB24150020F8B50D46144600213B
:102598000646007B1F4604F07AFB05F07E010A48D8
:1025A80003F0DEF8013C7D1E3C44A54205D015F839
:1025B800011F054803F0D4F8F7E7307B0121BDE897
:1025C800F84004F064BB00BF2415002038B50C4661
:1025D80005460021007B04F05AFB04F07E01084CFC
:1025E80041F08001204603F0BBF80021204603F0AB
:1025F800B7F804460121287B04F049FB204638BD82
:10260800241500202DE9F84F80461F469DF8289094
:102618001546002A43D001F07E0141F08006007B78
:10262800002104F034FB31461E4803F099F8013DBF
:10263800EDB24FF0000B4FF0010A5FFA8BF4A542A0
:1026480021D9BCB9B9F1000F14D04B46072B06D8D5
:102658000AFA03F004430133E4B2DBB2F6E7314689
:10266800104803F07DF83B78204023EA0403184320
:10267800387005E031460B4803F072F807F80B0094
:102688000BF1010BD9E70021064803F069F87855EA
:1026980098F80C000121BDE8F84F04F0F8BABDE83D
:1026A800F88F00BF2415002070B505460E46144665
:1026B800FFF78CFF40EA040231462846BDE8704027
:1026C800D2B2FFF747BF70B505460E461446FFF76E
:1026D8007DFF20EA040231462846BDE87040D2B2A8
:1026E800FFF738BFF8B5044615460F460022022109
:1026F8001E46FFF72FFF04220A212046FFF72AFF74
:10270800802214212046FFF7CFFF2A463B4612219C
:102718002046FFF739FF032202212046FFF71AFF60
:1027280041F288350A212046FFF750FF430705D4B8
:10273800013DADB2002DF5D10420F8BD00222046A0
:102748000221FFF707FF44212046FFF73FFF422100
:1027580030702046FFF73AFF70700120F8BD10B5C1
:102768000F2202210446FFF7F5FE322003F0C2FAD9
:1027780002212046FFF72AFFC306F9D410BD10B581
:1027880028210446FFF722FF00F00303032B08D09B
:1027980040F00302D2B22046BDE810402821FFF7DE
:1027A800D9BE10BD10B50446407B04F089FA38B98B
:1027B800607B012104F06BFA322003F09BFA02E0FF
:1027C8002046FFF7CCFF204680225421FFF7C2FEA7
:1027D8002046A9225621FFF7BDFE20460322582194
:1027E800FFF7B8FE2046E8225A21FFF7B3FE20463D
:1027F80040222A21FFF7AEFE20463D222221FFF784
:10280800A9FE2046BDE81040FFF7B9BF2DE9F04FFB
:1028180087B0DDF84C8004468B460292119F129DCA
:102828009DF850A0B8F1000F02D098F8006000E0C1
:1028380046460022022120460393FFF78BFE7F22A3
:1028480008212046FFF786FE06EB0A16802214218F
:102858002046FFF729FFF6B2039B9DF8402012217E
:102868002046FFF791FE32461A212046FFF772FEF6
:102878005A4602212046FFF76DFEBBF10C0F04D12A
:1028880080221A212046FFF70FFF4FF4FA6608212D
:102898002046FFF79BFE029B184204D1C20752D480
:1028A800013EF4D14FE00C212046FFF78FFE10F0D7
:1028B800130F064649D1DFB1D5B114212046FFF7E1
:1028C80085FE2B780246834241D328703B4612216D
:1028D8002046CDF800A0FFF795FE18212046FFF707
:1028E80075FE00F00709B8F1000F01D088F80090D4
:1028F80033072ED47FB375B39DF854305BB32A7871
:10290800012A04D1B9F1040F27D1092026E024D9DE
:10291800B9F1000F21D1023A05ABD2B239462046AF
:10292800FFF7E0FE012819D12B781F4417F8022C75
:102938009DF814309A4210D117F8012C9DF81530E3
:102948009A420AD10AE0042008E0022006E00520A5
:1029580004E0032002E0012000E0082007B0BDE801
:10296800F08F10B586B09DF82C4005949DF828404E
:102978000494099C0394089C8DE81C000B463022A3
:102988000C21FFF743FF06B010BD70B588B00646AE
:102998001C468DF81710154612B31B78012B1FD94A
:1029A80080221C21FFF78FFE07238DF81F3000239C
:1029B800039302930DF11F03019300942B46012208
:1029C8000DF117013046FFF7CCFF01280BD1207815
:1029D800022807D19DF81F30002B08BF012002E014
:1029E800052000E0022008B070BD13460A462621E3
:1029F800FFF7CBBF2DE9F04F502A8BB083468A46AC
:102A0800174600F2F68080221C21FFF75CFE0125A4
:102A1800022D10D0032D1BD0012D40F0EC80932304
:102A28008DF81C30D7B19AF800300026042B94BFDB
:102A38000023012316E06FF06A038DF81C307FB184
:102A48009AF800300326072B94BF0023012309E0DE
:102A580097238DF81C300626002303E03E4600E04D
:102A680003263B46A7EBC60464B224EAE4742BB100
:102A780088228DF81E204FF0030801E04FF002086D
:102A8800E1B211F0070218BF012202EBE40212F0D2
:102A9800FF0206D1002B00F08C8001F1080464B21B
:102AA80087E0002B14BF03200420824228BF02467F
:102AB800002008EB000E0DF1280C5FFA8EFEE644AC
:102AC80006EB000CD4449CF801C001300EF80CCC85
:102AD8005FFA80FE9645ECD3DCE7012840F08D8054
:102AE8001F2C00F38C8020244FF070039DF81E20CB
:102AF8008DF81D309DF81F3007A953409DF8202000
:102B080058465A409DF8213053408DF8223007220C
:102B18000DF12303FFF7E6FD012840F0B7804FF0E1
:102B280000038DF81A3003238DF81B3009230DF1AB
:102B3800220904930DF1280818F80E3D1A2103EB19
:102B48000312D2B258460593FFF704FD00230393FE
:102B5800059BCDF8048002930DF11B030093049AA2
:102B68004B4607A95846FFF7FCFE03288046B4D118
:102B78001C215846FFF72AFD81063ED410F01F009D
:102B880008BF2020A04236DD44B2013800F0070318
:102B980010F0070018BF012000EBE4000AAA01307A
:102BA8001044012202FA03F310F80C2C134300F826
:102BB8000C3C1F2C98DCE3100233DBB204F007084E
:102BC8005FFA88F2B8F1000F0CBF984603F10108CC
:102BD8008DF81A2002EB03128DF81D205FFA88F297
:102BE800049207AA02EB0309C3F109038DF81B300D
:102BF800A0E707204AE0062048E0404646E09DF866
:102C08001E30882B3FD0022104240023CA18D2B2D8
:102C18000DF1280E7244F01812F80C2C50440133B0
:102C28004270DAB29442F1D89DF81B30032B26D1BA
:102C38009DF81A301BBB0DF11E0301224946584668
:102C4800FFF750FD012821D19DF81E2099F8013089
:102C58009A4216D19DF81F2099F802309A4210D155
:102C680099F800305A0702D50135EDB2D0E605EBE8
:102C7800450501358AF80B308AF8005006E0022035
:102C880004E0082002E003210C46BEE70BB0BDE8D3
:102C9800F08F70B5502386B08DF8143000250DF1F3
:102CA8001603022205A906468DF81550FFF71AFDEE
:102CB800012804460FD103950295019500952B46EE
:102CC800042205A93046FFF74CFE042803D001284A
:102CD80008BF022000E0204606B070BD082210217F
:102CE800FFF7F1BC07B5022302AA02F8053D01A9C6
:102CF800FFF77BFE012802D0C31E5842584103B09B
:102D08005DF804FB08B500220146FFF773FE431E79
:102D18005842584108BD02F013B902F091B910B5F4
:102D28000446C06808B102F0F1FB23781BB100210A
:102D3800E07903F09BFF204610BD38B50446C06813
:102D48000D4608B102F0E2FBA379062B0CBF042064
:102D58000320684380B2A08002F0D0FBE06028B175
:102D6800A288002104F075FD658038BDA0806080D0
:102D780038BD10B504460121C07903F077FF002162
:102D8800E07903F084FF0123237010BD38B5037880
:102D980005460C461BB10021C07903F067FF2B786C
:102DA800EC7153B1A4B22046012103F05FFF204625
:102DB800BDE83840002103F06ABF38BD70B504464D
:102DC80016460025837105700572C5600561FFF719
:102DD800B4FF20463146FFF7D9FF204670BD0000FA
:102DE800C368002B00F08E852DE9F04104468379F5
:102DF80086B0023BDBB2042B96BF294A322552F833
:102E08002350FFF78AFF2369C01AA842F9D372B684
:102E1800A179A3880229ADF80A30D4F80CE000F0B3
:102E28007282072900F06F82062900F03284052992
:102E380000F0AB83082900F0A883002940F06385DF
:102E4800184A4FF40006BDF80A309BB2002B00F078
:102E580095830496BDF80A300EF10305033B9BB237
:102E6800ADF80A309EF80030DBB28DF807309EF8D6
:102E78000130DBB28DF806309EF80230DBB28DF8F7
:102E880008309DF807709DF806309DF808001B0271
:102E980043EA0743034303938DF805101BE100BF82
:102EA800B4850A0854100020004600BF00BF00BFC8
:102EB80000BF00BF00BF00BF00BF00BF00BF00BF12
:102EC80000BF00BF00BF00BF00BF00BF00BF00BF02
:102ED80000BF00BF00BF00BF00BF00BF00BF00BFF2
:102EE80000BF00BF00BF00BF00BF00BF00BF00BFE2
:102EF80000BF00BF00BF00BF00BF00BF00BF00BFD2
:102F080000BF00BF00BF00BF00BF00BF00BF00BFC1
:102F180000BF00BF00BF00BF00BF00BF00BF00BFB1
:102F280000BF00BF00BF00BF00BF00BF00BF00BFA1
:102F380000BF00BF00BF00BF00BF00BF00BF00BF91
:102F480000BF00BF00BF00BF00BF00BF00BF00BF81
:102F580000BF00BF00BF00BF00BF00BF00BF00BF71
:102F680000BF00BF00BF00BF00BF00BF00BF00BF61
:102F780000BF00BF00BF00BF00BF00BF00BF00BF51
:102F880000BF00BF00BF00BF00BF00BF00BF00BF41
:102F980000BF00BF00BF00BF00BF00BF00BF00BF31
:102FA80000BF00BF00BF00BF00BF00BF00BF00BF21
:102FB800E3791068C3EBC30300EB8307BF8850F8BD
:102FC80023305F83004600BF00BF00BF00BF00BFC3
:102FD80000BF00BF00BF00BF00BF00BF00BF00BFF1
:102FE80000BF00BF00BF00BF00BF00BF00BF00BFE1
:102FF80000BF00BF00BF00BF00BF00BF00BF00BFD1
:1030080000BF00BF00BF00BF00BF00BF00BF00BFC0
:1030180000BF00BF00BF00BF00BF00BF00BF00BFB0
:1030280000BF00BF00BF00BF00BF00BF00BF00BFA0
:1030380000BF00BF00BF00BF00BF00BF00BF00BF90
:1030480000BF00BF00BF00BF00BF00BF00BF00BF80
:1030580000BF00BF00BF00BF00BF00BF00BF00BF70
:1030680000BF00BF00BF00BF00BF00BF00BF00BF60
:1030780000BF00BF00BF00BF00BF00BF00BF00BF50
:1030880000BF00BF00BF00BF00BF00BF00BF00BF40
:1030980000BF00BF00BF00BF00BF00BF00BF00BF30
:1030A80000BF00BF00BF00BF00BF00BF00BF00BF20
:1030B80000BF00BF00BF00BF00BF00BF00BF049B30
:1030C8005B0804939DF805300133DBB2172B8DF8AC
:1030D800053000F2DB82E3791068C3EBC30300EB31
:1030E8008307BF8850F823301F830398049B184236
:1030F8007FF4DAAE004600BF00BF00BF00BF00BFCC
:1031080000BF00BF00BF00BF00BF00BF00BF00BFBF
:1031180000BF00BF00BF00BF00BF00BF00BF00BFAF
:1031280000BF00BF00BF00BF00BF00BF00BF00BF9F
:1031380000BF00BF00BF00BF00BF00BF00BF00BF8F
:1031480000BF00BF00BFE3791068C3EBC30300EB07
:103158008307BF8850F823305F83004600BF00BF55
:1031680000BF00BF00BF00BF00BF00BF00BF00BF5F
:1031780000BF00BF00BF00BF00BF00BF00BF00BF4F
:1031880000BF00BF00BF00BF00BF00BF00BF00BF3F
:1031980000BF00BF00BF00BF00BF00BF00BF00BF2F
:1031A80000BF00BF00BF00BF00BF00BF00BF00BF1F
:1031B80000BF00BF00BF00BF00BF00BF00BF00BF0F
:1031C80000BF00BF00BF00BF00BF00BF00BF00BFFF
:1031D80000BF00BF00BF00BF00BF00BF00BF00BFEF
:1031E80000BF00BF00BF00BF00BF00BF00BF00BFDF
:1031F80000BF00BF00BF00BF00BF00BF00BF00BFCF
:1032080000BF00BF00BF00BF00BF00BF00BF00BFBE
:1032180000BF00BF00BF00BF00BF00BF00BF00BFAE
:1032280000BF00BF00BF00BF00BF00BF00BF00BF9E
:1032380000BF00BF00BF00BF00BF00BF00BF00BF8E
:1032480000BF00BF00BF00BF00BF00BF00BF00BF7E
:1032580000BF00BF00BF00BF00BF00BF00BF00BF6E
:1032680000BF00BF00BF00BF00BF00BF00BF00BF5E
:1032780000BF00BF00BF00BF00BF00BF00BF00BF4E
:1032880000BF00BF00BF00BF00BF00BF00BF00BF3E
:1032980000BF00BF00BF00BF00BF00BF00BF00BF2E
:1032A80000BF00BF00BF00BF00BF00BF00BF00BF1E
:1032B80000BF00BF00BF00BF00BF00BF00BF00BF0E
:1032C80000BF00BF00BF00BF00BF00BF00BF00BFFE
:1032D80000BF00BF00BF00BF00BF00BF00BF00BFEE
:1032E80000BF00BF00BF00BF00BF00BF00BF00BFDE
:1032F80000BF00BF00BF00BF00BF00BF00BF00BFCE
:1033080000BF00BFDBE6BDF80A30174A9BB24FF496
:1033180000050026002B00F031810495BDF80A3025
:103328000EF10301033B9BB2ADF80A309EF8003062
:10333800DBB28DF806309EF80130DBB28DF807302D
:103348009EF80230DBB28DF808309DF806309DF803
:1033580007009DF80870000240EA03433B430393CB
:103368008DF8056080E000BF54100020004600BFC3
:1033780000BF00BF00BF00BF00BF00BF00BF00BF4D
:1033880000BF00BF00BF00BF00BF00BF00BF00BF3D
:1033980000BF00BF00BF00BF00BF00BF00BF00BF2D
:1033A80000BF00BF00BF00BF00BF00BF00BF00BF1D
:1033B80000BF00BF00BF00BF00BF00BF00BF00BF0D
:1033C80000BF00BF00BF00BF00BF00BF00BF00BFFD
:1033D80000BF00BF00BF00BF00BF00BF00BF00BFED
:1033E80000BF00BF00BF00BF00BF00BF00BF00BFDD
:1033F80000BF00BF00BF00BF00BF00BF00BF00BFCD
:1034080000BF00BF00BFE3791068C3EBC30300EB44
:103418008307BF8850F823305F83004600BF00BF92
:1034280000BF00BF00BF00BF00BF00BF00BF00BF9C
:1034380000BF00BF00BF00BF00BF00BF00BF00BF8C
:1034480000BF00BF00BF00BF00BF00BF00BF00BF7C
:10345800049B5B0804939DF805300133DBB2172BFE
:103468008DF8053000F28380E3791068C3EBC3035D
:1034780000EB8307BF8850F823301F830398049B11
:1034880018427FF473AF004600BF00BF00BF00BF03
:1034980000BF00BF00BF00BF00BF00BF00BF00BF2C
:1034A80000BF00BF00BF00BF00BF00BF00BFE3797F
:1034B8001068C3EBC30300EB8307BF8850F82330C1
:1034C8005F83004600BF00BF00BF00BF00BF00BF52
:1034D80000BF00BF00BF00BF00BF00BF00BF00BFEC
:1034E80000BF00BF00BF00BF00BF00BF00BF00BFDC
:1034F80000BF00BF00BF00BF00BF00BF00BF00BFCC
:1035080000BF00BF00BF00BF00BF00BF00BF00BFBB
:1035180000BF00BF00BF00BF00BF00BF00BF00BFAB
:1035280000BF00BF00BF00BF00BF00BF00BF00BF9B
:1035380000BF00BF00BF00BF00BF00BF00BF00BF8B
:1035480000BF00BF00BF00BF00BF00BF00BF00BF7B
:1035580000BF00BF00BF00BF00BF00BF00BF00BF6B
:1035680000BF00BF00BF00BF00BF00BF70E7BDF8CD
:103578000A308E469BB2002B7FF4CFAE62B6FFF7BF
:10358800CCFB206106B0BDE8F0815E4B5E4A184670
:1035980011684FF400080027BDF80A2092B2002AEB
:1035A800ECD0CDF81080BDF80A200EF10305033ADF
:1035B80092B2ADF80A209EF80020D2B28DF806200B
:1035C8009EF80120D2B28DF807209EF80220D2B2D0
:1035D8008DF808209DF806209DF807E09DF808C0A2
:1035E8004FEA0E2E4EEA024242EA0C0203928DF88E
:1035F8000570E2795E68C2EBC20201EB820EBEF88A
:1036080004E051F822200596A2F818E0039E049AD7
:10361800164223D05A68059E921B4F2AFAD9E2799E
:10362800C2EBC20201EB820EBEF804E051F8222080
:10363800A2F81AE0426805925A68059E921B072A6A
:10364800FAD9049A520804929DF805200132D2B2A0
:10365800172A8DF80520CCD9AE469DE75A68059EF5
:10366800921B182AFAD9E279C2EBC20201EB820E48
:10367800BEF804E051F82220A2F81AE04268059248
:103688005A68059E921B452AFAD9DAE7AE46FFF733
:10369800DABB1D4A4FF000450026BDF80A309BB240
:1036A800002B3FF46BAF0495BDF80A300EF104010E
:1036B800043B9BB2ADF80A309EF80030DBB28DF8BF
:1036C80007309EF80130DBB28DF806309EF80230E4
:1036D800DBB28DF808309EF80330DBB28DF8093084
:1036E8009DF807309DF806709DF808E03F049DF8A6
:1036F800090047EA0363034343EA0E2303938DF863
:1037080005607EE0001000E054100020004600BF75
:1037180000BF00BF00BF00BF00BF00BF00BF00BFA9
:1037280000BF00BF00BF00BF00BF00BF00BF00BF99
:1037380000BF00BF00BF00BF00BF00BF00BF00BF89
:1037480000BF00BF00BF00BF00BF00BF00BF00BF79
:1037580000BF00BF00BF00BF00BF00BF00BF00BF69
:1037680000BF00BF00BF00BF00BF00BF00BF00BF59
:1037780000BF00BF00BF00BF00BFE3791068C3EB04
:10378800C30300EB8307BF8850F823305F830046EC
:1037980000BF00BF00BF00BF00BF00BF00BF00BF29
:1037A80000BF00BF00BF00BF00BF00BF00BF00BF19
:1037B80000BF00BF00BF00BF00BF00BF00BF00BF09
:1037C80000BF00BF00BF00BF00BF00BF00BF00BFF9
:1037D80000BF00BF00BF00BF00BF00BF00BF00BFE9
:1037E80000BF00BF00BF00BF00BF00BF049B5B0855
:1037F80004939DF805300133DBB21F2B8DF805309B
:103808007ED8E3791068C3EBC30300EB8307BF8856
:1038180050F823301F830398049B18427FF476AF37
:10382800004600BF00BF00BF00BF00BF00BF00BF11
:1038380000BF00BF00BF00BF00BF00BF00BF00BF88
:1038480000BF00BF00BF00BFE3791068C3EBC3032C
:1038580000EB8307BF8850F823305F83004600BF22
:1038680000BF00BF00BF00BF00BF00BF00BF00BF58
:1038780000BF00BF00BF00BF00BF00BF00BF00BF48
:1038880000BF00BF00BF00BF00BF00BF00BF00BF38
:1038980000BF00BF00BF00BF00BF00BF00BF00BF28
:1038A80000BF00BF00BF00BF00BF00BF00BF00BF18
:1038B80000BF00BF00BF00BF00BF00BF00BF00BF08
:1038C80000BF00BF00BF00BF00BF00BF00BF00BFF8
:1038D80000BF00BF00BF00BF00BF00BF00BF00BFE8
:1038E80000BF00BF00BF00BF00BF00BF00BF00BFD8
:1038F80000BF00BF00BF00BF00BF00BF00BF75E72B
:103908008E46CAE67047032900F02E811E4A4FF4FE
:1039180000050026BDF80A309BB2002B3FF42EAEFE
:103928000495BDF80A30E079033B9BB2ADF80A3044
:103938009EF800300EF10301DBB28DF807309EF8D7
:103948000130C0EBC000DBB28DF808309EF80230C1
:10395800D2F800E0DBB28DF806309DF807709DF8CC
:1039680008300EEB800C1B0243EA07439DF80670F3
:10397800BCF804C05EF820003B4303938DF8056053
:10398800A0F81AC07DE000BF54100020049B5B081B
:103998000493004600BF00BF00BF00BF00BF00BFC8
:1039A80000BF00BF00BF00BF00BF00BF00BF00BF17
:1039B80000BF00BF00BF00BF00BF00BF00BF00BF07
:1039C80000BF00BF00BF00BF00BF00BF00BF00BFF7
:1039D80000BF00BF00BF00BF00BF00BF00BF00BFE7
:1039E80000BF00BF00BF00BF00BF00BF00BF00BFD7
:1039F80000BF00BF00BF00BF00BF00BF00BF00BFC7
:103A080000BF00BF00BF00BF00BF00BF00BF00BFB6
:103A180000BF00BF00BF00BFE07917689DF8053000
:103A2800C0EBC00007EB800EBEF804E057F820009A
:103A38000133DBB28DF80530A0F818E0004600BF6E
:103A480000BF00BF00BF00BF00BF00BF00BF00BF76
:103A580000BF00BF00BF00BF00BF00BF00BF00BF66
:103A680000BF00BF00BF9DF80530182B7AD0E3795E
:103A78001068C3EBC30300EB8307BF8850F82330FB
:103A88005F830398049B184280D1004600BF00BFA3
:103A980000BF00BF00BF00BF00BF00BF00BF00BF26
:103AA80000BF00BF00BF00BF00BF00BFE3791068C0
:103AB800C3EBC30300EB8307BF8850F823301F8391
:103AC8009DF805300133DBB28DF80530049B5B08A7
:103AD8000493004600BF00BF00BF00BF00BF00BF87
:103AE80000BF00BF00BF00BF00BF00BF00BF00BFD6
:103AF80000BF00BF00BF00BF00BF00BF00BF00BFC6
:103B080000BF00BF00BF00BF00BF00BF00BF00BFB5
:103B180000BF00BF00BF00BF00BF00BF00BF00BFA5
:103B280000BF00BF00BF00BF00BF00BF00BF00BF95
:103B380000BF00BF00BF00BF00BF00BF00BF00BF85
:103B480000BF00BF00BF00BF00BF00BF00BF00BF75
:103B580000BF00BF00BF00BF00BF00BF9DF8053019
:103B6800182B84D18E46D5E6174A4FF40005002657
:103B7800BDF80A309BB2002B3FF400AD0495BDF8A8
:103B88000A300EF10301033B9BB2ADF80A309EF8F0
:103B98000030DBB28DF807309EF80130DBB28DF8CB
:103BA80006309EF80230DBB28DF808309DF80770B9
:103BB8009DF806309DF808001B0243EA07430343BB
:103BC80003938DF80560E0E054100020004600BF24
:103BD80000BF00BF00BF00BF00BF00BF00BF00BFE5
:103BE80000BF00BF00BF00BF00BF00BF00BF00BFD5
:103BF80000BF00BF00BF00BF00BF00BF00BF00BFC5
:103C080000BF00BF00BF00BF00BF00BF00BF00BFB4
:103C180000BF00BF00BF00BF00BF00BF00BF00BFA4
:103C280000BF00BF00BF00BF00BF00BF00BF00BF94
:103C380000BF00BF00BF00BF00BF00BF00BF00BF84
:103C480000BF00BF00BF00BF00BF00BF00BF00BF74
:103C580000BF00BF00BF00BF00BF00BF00BF00BF64
:103C680000BF00BF00BF00BF00BF00BF00BF00BF54
:103C780000BF00BF00BF00BF00BF00BF00BF00BF44
:103C880000BF00BF00BF00BF00BF00BF00BF00BF34
:103C980000BF00BF00BF00BF00BF00BF00BF00BF24
:103CA80000BF00BF00BF00BF00BF00BF00BF00BF14
:103CB80000BF00BF00BF00BF00BF00BF00BF00BF04
:103CC80000BF00BF00BF00BF00BF00BF00BF00BFF4
:103CD80000BF00BF00BF00BF00BF00BF00BF00BFE4
:103CE80000BF00BF00BF00BF00BF00BF00BFE37937
:103CF8001068C3EBC30300EB8307BF8850F8233079
:103D08005F83004600BF00BF00BF00BF00BF00BF09
:103D180000BF00BF00BF00BF00BF00BF00BF00BFA3
:103D280000BF00BF00BF00BF00BF00BF00BF00BF93
:103D380000BF00BF00BF00BF00BF00BF00BF00BF83
:103D480000BF00BF00BF00BF00BF00BF00BF00BF73
:103D580000BF00BF00BF00BF00BF00BF00BF00BF63
:103D680000BF00BF00BF00BF00BF00BF00BF00BF53
:103D780000BF049B5B0804939DF805300133DBB258
:103D8800172B8DF8053000F2E380E3791068C3EB58
:103D9800C30300EB8307BF8850F823301F830398C1
:103DA800049B18427FF412AF004600BF00BF00BF5B
:103DB80000BF00BF00BF00BF00BF00BF00BF00BF03
:103DC80000BF00BF00BF00BF00BF00BF00BF00BFF3
:103DD80000BF00BF00BF00BF00BF00BF00BF00BFE3
:103DE80000BF00BF00BF00BF00BF00BF00BF00BFD3
:103DF80000BF00BF00BF00BF00BF00BF00BF00BFC3
:103E080000BF00BF00BF00BF00BF00BF00BF00BFB2
:103E180000BF00BF00BF00BF00BF00BF00BF00BFA2
:103E280000BF00BF00BF00BF00BFE3791068C3EB4D
:103E3800C30300EB8307BF8850F823305F83004635
:103E480000BF00BF00BF00BF00BF00BF00BF00BF72
:103E580000BF00BF00BF00BF00BF00BF00BF00BF62
:103E680000BF00BF00BF00BF00BF00BF00BF00BF52
:103E780000BF00BF00BF00BF00BF00BF00BF00BF42
:103E880000BF00BF00BF00BF00BF00BF00BF00BF32
:103E980000BF00BF00BF00BF00BF00BF00BF00BF22
:103EA80000BF00BF00BF00BF00BF00BF00BF00BF12
:103EB80000BF00BF00BF00BF00BF00BF00BF00BF02
:103EC80000BF00BF00BF00BF00BF00BF00BF00BFF2
:103ED80000BF00BF00BF00BF00BF00BF00BF00BFE2
:103EE80000BF00BF00BF00BF00BF00BF00BF00BFD2
:103EF80000BF00BF00BF00BF00BF00BF00BF00BFC2
:103F080000BF00BF00BF00BF00BF00BF00BF00BFB1
:103F180000BF00BF00BF00BF00BF00BF00BF00BFA1
:103F280000BF00BF00BF00BF00BF00BF00BF00BF91
:103F380000BF00BF00BF00BF00BF00BF00BF00BF81
:103F480000BF00BF00BF00BF00BF00BF00BF10E739
:103F58008E460DE6F0B544889DF814508C4227D95A
:103F6800047A44B1624363436C43C2F30722C3F348
:103F78000723C4F307258779C66801EB4101082F99
:103F880006EB010411D80120B84010F4D27F08D103
:103F9800C0060AD5FF2A08BFFE2272546570A370B6
:103FA800F0BD73546270A570F0BD72546370A57053
:103FB800F0BD4A1C037AD2B29A4270B51ED0013BBA
:103FC80013F0FF03C4680CD0FF290FBF4FF6FF7131
:103FD800110201F1FF3191FBF3F30CBF91FBF3F3F5
:103FE8009BB22546291B868889B28E4205D9297835
:103FF8005943091205F8011BF4E7027270BD00006D
:1040080008B500F09DFF00F09BFF014B186008BD4C
:10401800541000202DE9F04F1E4685B0BDF9383008
:1040280015469A1A002AB8BF52420092721A002AFC
:10403800B8BF524201920C46009A019981468A42C1
:10404800BDF83CA005DD32461E46134622462C46E6
:104058001546B44205DD2A461D4613462246344617
:1040680016465A1B002AC4EB0608B8BF52421FFA6C
:1040780088F803920FFA88F702229D42B4BF012301
:104088004FF0FF3397FBF2F70293B4421FDC019A1B
:10409800009B48469342D9F80030C8BF2246D3F85F
:1040A80010B0C8BF29465346DCBF2A462146D84728
:1040B800039BFF1ABBB21FB2002F05DA029A08EB66
:1040C800030715442DB23FB2013424B2DDE705B031
:1040D800BDE8F08F2DE9F347044691460D46984612
:1040E800BDF82C600768BDF928A00096FF69B8479D
:1040F80023680AF1FF3200964A44DF69294643469D
:10410800204612B2B847236800969F694A4653462C
:1041180029462046B847236808F1FF310A96294402
:104128009D694A4653462046AC4609B202B0BDE8EE
:10413800F047604737B5013BBDF818501344046891
:104148001BB20093019564690B46A04703B030BDCC
:1041580037B5BDF8185004688DE82400013B0B44BE
:1041680064691BB2A04703B030BD2DE9F34705468B
:1041780017460C46BDF92880BDF82C9001EB030AC0
:1041880054450BDA2B68CDF800909E6921464346CA
:104198003A4628460134B04724B2F1E702B0BDE8F8
:1041A800F08713B5B0F90E2004680191009200223F
:1041B800B0F90C30646A1146A04702B010BD7047D0
:1041C800F0B50A2985B004460D4607D1436A027E38
:1041D8005978438A01FB0233438249E00D2949D0CB
:1041E800067E0368B0F91220B0F910100296C68A4C
:1041F8000196868A00961E6B2B46B047E37E94F99B
:104208001DE0ED1A636ABEF1000F03EB850213F897
:104218002560557815DDE08AA38A834211D0237E74
:104228000190218A03FB05F006FB031100B2276801
:104238000090B4F912207F6A0EFB03F309B22046FE
:10424800B847227E94F91D30208A91B2334403FB8B
:10425800010394F828001BB2238258B1B4F90C006A
:1042680006FB1202934205DD638A01FB0535658270
:1042780000232382012005B0F0BD00000423064A74
:104288008376064B42620122036242771A78C2762D
:104298005B780377704700BFFE8D0A0804860A081A
:1042A8004281C2814FF6FF7238B50023084D436042
:1042B800437603824382012301818181056003766D
:1042C800C282828280F828300421FFF7D7FF38BDE8
:1042D800D0850A082DE9F04F8BB09246BDF85020E2
:1042E80004460492BDF854200D460592C27E9DF8FE
:1042F80058609A4205D8017F994202D39B1ADBB2D3
:1043080000E00023B4F90C20AA427BDDB4F90E20AA
:10431800524577DD616A9A0011F82330079206FB4F
:104328000353002B0A446DDD537806FB03A3002BCF
:1043380068DD53880FFA86F802339BB20293002394
:104348000393B3B20693626A07999DF90C300A4445
:104358005278934256DA06999BB21FFA8AF203FB07
:104368000121134409B21BB208914FF000090993C7
:10437800626A07984FFA89F1125C5FFA89F39142F1
:104388003CDA5A0706D1029B0298226A01339BB293
:10439800175C02933B060DD5012E05D123682944ED
:1043A800D3F810B0049B10E0069B049A01FB03515C
:1043B800236814E0049B059A93421AD0012E09D170
:1043C80023682944D3F810B01346099A09B2204645
:1043D800D8470EE0069B059A01FB0351236801921A
:1043E800CDF80080D3F824B0089A434609B2204695
:1043F800D8477F00FFB209F10109B9E7039B0133F0
:104408000393A0E70BB0BDE8F08F70B4BDF80C4083
:10441800BDF810509DF8146004950596039470BC7F
:10442800FFF758BF018242827047002908BF012167
:104438000176704700F084BD00F082BD704700002F
:1044480038B50C46054628220021204603F001FA1B
:104458000B220849204603F0C1FA00230122E37227
:10446800E260A9696362002321616261A361E3617B
:10447800236238BDFE910A0810B50446FBF70DFE0D
:10448800204610BD0368C9B29B681847064AFF2139
:1044980002604FF0FF3282614277C27780F82020B5
:1044A800112281774262704710920A082DE9F04183
:1044B80090F92030054601330F4604D11648BDE86F
:1044C800F04101F04DB9072600244FF0010895F995
:1044D8002000002180B202F0DAFB95F91E0008FAEC
:1044E80006F1394080B202F0D2FB95F92000012193
:1044F80080B202F0CCFB95F91F00640080B2E4B2F0
:1045080002F0DEFB08B144F0010416F1FF36DED2FA
:104518002046BDE8F08100BF2415002010B5084CE6
:104528000121204601F049F806492046012201F000
:10453800E1F82046BDE81040002101F041B800BF75
:104548002415002020A1070070B590F91D300446FD
:1045580001330E46154616D102F000FC217F02F009
:1045680039FB02F0FBFB036831469B68984702F071
:10457800F5FB036829469B68984702F0EFFBBDE806
:10458800704002F032BB90F92030013301D1FFF7BF
:10459800C5FF94F91D00002180B202F078FB06F0F7
:1045A8007F012046FFF782FF29462046FFF77EFF5E
:1045B80094F91D00012180B2BDE8704002F067BB8C
:1045C80038B590F91D30044601330D461DD102F06F
:1045D800C5FB94F91C1002F001FB02F0BFFB036855
:1045E80029469B68984702F0B9FB02F0FEFA02F0F0
:1045F800B5FB012294F91C1002F0E7FA02F0AEFBB9
:1046080003685B699847C5B21BE090F92030013315
:1046180001D1FFF783FF94F91D00002180B202F059
:1046280036FB45F080012046FFF740FF0021204679
:10463800FFF73CFF054694F91D00012180B202F006
:1046480026FB284638BD38B50D4623210446FFF71A
:10465800B7FF20F0300040EA0512D2B22046BDE88C
:1046680038402321FFF770BF08B52321FFF7A8FFC3
:10467800C0F3011008BD38B50D4620210446FFF7E8
:104688009FFF00F00F0040EA0512D2B22046BDE8B5
:1046980038402021FFF758BF10B50446017790F93C
:1046A8001D00421C04D102F059FB02F07FFA21E000
:1046B800012180B202F0EBFA94F91D00012180B2C9
:1046C80002F0D4FA94F92000431C03D11A4800F0F0
:1046D80069FF0FE0012180B202F0C8FA94F91E00C8
:1046E800012180B202F0C2FA94F91F00002180B2C1
:1046F80002F0BCFA0F212046FFF762FF332819D1D8
:10470800072220462021FFF71FFF20460721FFF739
:10471800B2FF204688222321FFF716FF20461022E9
:104728002221FFF711FF204680221F21FFF70CFFEF
:10473800012010BD002010BD2415002038B590F9C7
:104748001D300446013343D102F008FB94F91C10D4
:1047580002F044FA02F002FBA821FFF793FE02F0F0
:10476800FDFA02F042FA02F0F9FA062294F91C1056
:1047780002F02BFA02F0F2FA03685B699847E080CE
:1047880002F0ECFA03685B699847E38843EA002083
:10479800E08002F0E3FA03685B699847208102F041
:1047A800DDFA03685B699847238943EA0020208182
:1047B80002F0D4FA03685B699847608102F0CEFA88
:1047C80003685B699847638943EA002060813CE09D
:1047D80090F92030013301D1FFF7A0FE94F91D00B4
:1047E800002180B202F053FAE8212046FFF75EFE6E
:1047F800FF212046FFF75AFEFF21E0802046FFF701
:1048080055FEE388FF2143EA0020E0802046FFF7B9
:104818004DFEFF2120812046FFF748FE2389FF2116
:1048280043EA002020812046FFF740FEFF216081F7
:104838002046FFF73BFE6389012143EA002060819F
:1048480094F91D0080B202F022FA2046FFF70CFF0F
:10485800032809D002280AD001280BD0002843F6E3
:10486800FC7018BF012007E04FF4006004E04FF42B
:10487800805001E041F6FE7002F09AFC0546B4F95A
:10488800060002F095FC294602F09AFDE060B4F9B2
:10489800080002F08DFC294602F092FD2061B4F96F
:1048A8000A0002F085FC294602F08AFD606138BDE5
:1048B80070B50C460546242632460021204602F0F3
:1048C800C8FF2660AB69284663600123A360002304
:1048D8002361FFF733FFEB6863612B69A3616B69A1
:1048E800E36170BD00F02CBB37B50446069D00950A
:1048F80000F036F8204603B030BD00F021BB00F0D0
:104908001FBB37B50446069D009500F029F82046E0
:1049180003B030BD0A46014900F035B824920A08B0
:1049280000F00EBB00F00CBB37B50446069D0095A1
:1049380000F0A0FA204603B030BD00F001BB00F043
:10494800FFBA00F0FDBA37B504460025009500F01F
:1049580091FA204603B030BD00F0F2BA00F0F0BA88
:1049680010B54360029B01704270836010BD83687C
:104978001BB1022904BF12681A607047007870479B
:10498800407870477047406800F0C0B9406800F050
:10499800E7B9406800F012BA00F0D2BA00F0D0BA15
:1049A80000F0CEBA00F0CCBA37B50446069D0095A3
:1049B80000F060FA204603B030BD00F0C1BA000034
:1049C8002DE9F04F85B00D460292814600284DD062
:1049D80000294DD00A4600214FF0000B02F039FFA4
:1049E80000F036FBD8465C46244FDFF894A00190CF
:1049F80000F02EFB019BC01A029B834239D300F0C2
:104A080027FB386000F042FD6B1EDAF80060039364
:104A1800326830461269904710B9022C29D8E7E766
:104A280000F016FB154B186000F030FD3268304678
:104A380052699047C0B2B8F1000F10D0FF2804D1D6
:104A48000134E4B2022CE3D913E0039B9B45DFDA7F
:104A58000BF1010209F80B001FFA82FBD8E7A0F15D
:104A68007003D3F1000848EB0308D1E7834600E060
:104A78008B46584605B0BDE8F08F00BF44150020AE
:104A8800B804002038B50546084B1C682368204642
:104A98005B6998470028F9DA2946204600F08AFF22
:104AA8002046BDE83840024900F084BFB804002021
:104AB8007F920A0830B5134B85B01B6804AD0024FB
:104AC800014645F8044D1846019301F025F80422E3
:104AD8002946019801F022F89DF80C30012B0ED1DF
:104AE8009DF80D30FF2B0AD19DF80E30FF2B06D113
:104AF8009DF80F40A4F1FF035842584100E02046BA
:104B080005B030BDB80400200C4B10B5014618683C
:104B180001F0CCFF0A48FFF7B5FF0A48FFF7B2FFDC
:104B28006420FFF7C7FF04460748FFF7ABFF642080
:104B3800FFF7C0FF002C08BF002010BDB8040020FC
:104B4800E8920A088F920A0866810A082DE9F34755
:104B580007464B4B4B4C1D6804F10C082B68284644
:104B68001B699847002800F0888000F071FA464BCE
:104B7800186000F08BFC0A2001F0BCF82B6828466E
:104B88005B699847C6B2652E24D12B6828461B69F5
:104B980098470528E2DD26703C4E06F1060A06F124
:104BA800FF392B6828465B69984706F8010BB24520
:104BB800F7D199F804300020FF2B89F80700CDD1F0
:104BC8006379FF2BCAD1A379FF2BC7D1E378A278E9
:104BD80061784DE0662E24D12B6828461B699847DA
:104BE8000328BBDD2670294E06F1040A06F1FF39B9
:104BF8002B6828465B69984706F8010BB245F7D140
:104C080099F802300022FF2B89F80520A6D1E37815
:104C1800FF2BA3D12379FF2BA0D161780092012328
:104C280027E0722E9AD12B6828461B6998470928D5
:104C380094DD2670154E06F1FF392B6828465B690E
:104C4800984706F8010BB045F7D1002389F80C30D6
:104C580099F80B30FF2B81D1A37AFF2B7FF47EAF1D
:104C6800637AFF2B7FF47AAFE378A27861780848FB
:104C78000090384600F02AF970E702B0BDE8F087E6
:104C8800B8040020581000204415002059100020B6
:104C98005C10002030B51A4B054653F8200F85B03C
:104CA8009B880090ADF8043068460023CDF80630A4
:104CB800CDF80A30ADF80E3002F073FE0A220DEB83
:104CC8000001284600F0B7FD6846FFF7DBFE0A2022
:104CD80001F010F80B4B1C6823682046DB699847E5
:104CE800204601F0E6FE2946204601F0DFFE064890
:104CF800FFF7C8FE6420FFF7DDFE05B030BD00BF3A
:104D080028920A08B8040020E8920A0830B50D462F
:104D180089B001466846144602F01FFE0E496846EF
:104D280002F002FE2946684602F0FEFD0B4968467D
:104D380002F0FAFD684602F034FE0A220DEB00018B
:104D4800204600F078FD6846FFF79CFE6420FFF7D8
:104D5800B1FE09B030BD00BFC2820A08A2920A089B
:104D6800F0B507460E4614461D46124A89B052F859
:104D7800300F0021137900901B220DF105008DF8EA
:104D8800043002F066FD3946684602F0CDFD0A4956
:104D9800684602F0C9FD3146684602F0C5FD68461E
:104DA800FFF770FE642229462046FFF709FE09B086
:104DB800F0BD00BF28920A08C2820A08F8B5064664
:104DC80000AF10460D46144602F0EBFD00F1270334
:104DD80023F00703ADEB030D00F120020021684624
:104DE80002F037FD3146684602F0B7FD0D496846C6
:104DF80002F09AFD2946684602F096FD0A4968467F
:104E080002F092FD2146684602F08EFD0749684689
:104E180002F08AFD6846FFF735FE6420FFF74AFE78
:104E2800BD46F8BDC2820A08AA920A08AB920A08CF
:104E380000F086B800F084B800F082B837B50446B0
:104E4800069D009500F016F8204603B030BD00001E
:104E580013460A460149FFF799BD00BFAD920A08FB
:104E68000A460149FFF795BDAD920A0800F068B8F7
:104E780000F066B837B50446069D0095FFF770FD4B
:104E880020460023E3606361E361A3612361236239
:104E980003B030BDC16002617047416182617047F3
:104EA800C3680BB100691847704743690BB1806943
:104EB8001847704710B50446006AFFF758FDE369C4
:104EC8001BB1206ABDE81040184710BD2DE9F04716
:104ED800DDF82080894692461D46074658B30026CD
:104EE800B3B257F8234034B32046FFF747FD48458F
:104EF8001FD12046FFF744FD50451AD12046FFF741
:104F080041FD012D04D12046BDE8F047FFF7C8BF99
:104F180025B92046BDE8F047FFF7C7BF022D01D0ED
:104F2800032D08D1424629462046BDE8F047FFF741
:104F3800C1BF0136D4E7BDE8F08700F001B8000032
:104F480008B5024B1B681B68019308BDB001060831
:104F580008B5024B1B689B68019308BDB0010608A1
:104F680008B5024B1B68DB68019308BDB001060851
:104F780008B5024B1B681B69019308BDB001060800
:104F880008B5024B1B685B69019308BDB0010608B0
:104F980008B5024B1B681B68019308BDB4010608DD
:104FA80008B5024B1B689B68019308BDB40106084D
:104FB80008B5024B1B68DB68019308BDB4010608FD
:104FC80008B5024B1B681B69019308BDB4010608AC
:104FD80008B5024B1B685B69019308BDB40106085C
:104FE80008B5024B1B68DB69019308BDB4010608CC
:104FF80008B5024B1B681B6A019308BDB40106087B
:1050080008B5024B1B685B6A019308BDB40106082A
:1050180008B5024B1B68DB6B019308BDB401060899
:1050280008B5024B1B685B68019308BD9C01060824
:1050380008B5024B1B68DB68019308BD9C01060894
:1050480008B5024B1B681B69019308BD9C01060843
:1050580008B5024B1B685B69019308BD9C010608F3
:1050680008B5024B1B68DB69019308BD9C01060863
:1050780008B5024B1B689B6D019308BD9C0106088F
:1050880008B5024B1B689B6E019308BDB801060862
:1050980008B5024B1B68DB6E019308BDB801060812
:1050A80008B5024B1B68DB68019308BDD0010608F0
:1050B80008B5024B1B681B6A019308BDD00106089E
:1050C80008B5024B1B685B6A019308BDD00106084E
:1050D80008B5024B1B689B6A019308BDD0010608FE
:1050E80008B5024B1B68DB6A019308BDD0010608AE
:1050F80008B5024B1B681B6B019308BDD00106085D
:1051080008B5024B1B689B6B019308BDD0010608CC
:1051180008B5024B1B681B6C019308BDD00106083B
:1051280008B5024B1B689B69019308BDC4010608BA
:1051380008B5024B1B681B6A019308BDC401060829
:1051480008B5024B1B685B6A019308BDC4010608D9
:1051580008B5024B1B689B6A019308BDC401060889
:1051680008B5024B1B68DB6A019308BDC401060839
:1051780008B5024B1B681B6B019308BDC4010608E8
:1051880008B5024B1B685B6B019308BDC401060898
:1051980008B5024B1B689B6B019308BDC401060848
:1051A80008B5024B1B681B6C019308BDC4010608B7
:1051B80008B5024B1B68DB6C019308BDC4010608E7
:1051C80008B5024B1B68DB6C019308BDAC010608EF
:1051D80008B5024B1B685B6D019308BDAC0106085E
:1051E80008B5024B1B689B6D019308BDAC0106080E
:1051F80008B5024B1B68DB6D019308BDAC010608BE
:1052080008B5024B1B681B6E019308BDAC0106086C
:1052180008B5024B1B685B6E019308BDAC0106081C
:1052280008B5024B1B689B6E019308BDAC010608CC
:1052380008B5024B1B68DB6E019308BDAC0106087C
:1052480008B5024B1B681B6F019308BDAC0106082B
:1052580008B5024B1B685B6F019308BDAC010608DB
:1052680008B5034B1B68D3F88030019308BD0000D4
:10527800AC01060808B5024B1B685B68019308BDC2
:10528800BC01060808B5024B1B689B68019308BD62
:10529800BC01060808B5024B1B685B69019308BD91
:1052A800BC01060808B5024B1B68DB69019308BD01
:1052B800BC01060808B5024B1B681B6A019308BDB0
:1052C800BC01060808B5024B1B681B6B019308BD9F
:1052D800BC01060808B5024B1B681B68019308BD92
:1052E800D801060808B5024B1B681B69019308BD65
:1052F800D801060808B5024B1B685B69019308BD15
:10530800D801060808B5024B1B689B69019308BDC4
:10531800D801060808B5024B1B68DB69019308BD74
:10532800D801060808B5024B1B681B6A019308BD23
:10533800D801060808B5024B1B689B6C019308BD91
:10534800C001060808B5024B1B685B68019308BDDD
:10535800A801020808B5024B1B689B68019308BDA9
:10536800A801020808B5024B1B68DB68019308BD59
:10537800A801020808B5024B1B681B69019308BD08
:10538800A801020808B5024B1B689B69019308BD78
:10539800A801020808B5024B1B68DB69019308BD28
:1053A800A801020808B5024B1B685B6B019308BD96
:1053B800A801020808B5024B1B681B68019308BDC9
:1053C800A401060808B5024B1B685B68019308BD79
:1053D800A401060808B5024B1B685B69019308BD68
:1053E800A401060808B5024B1B68DB6C019308BDD5
:1053F800A401060808B5024B1B685B6D019308BD44
:10540800A401060808B5024B1B689B6D019308BDF3
:10541800A401060808B5034B1B68D3F89030019324
:1054280008BD0000A401060808B5034B1B68D3F8A3
:105438009C30019308BD0000A401060808B5024B82
:105448001B68DB68019308BDC801060808B5024B54
:105458001B681B69019308BDC801060808B5024B03
:105468001B685B69019308BDC801060808B5024BB3
:105478001B689B69019308BDC801060808B5024B63
:105488001B68DB69019308BDC801060808B5024B13
:105498001B689B68019308BDCC01060808B5024B40
:1054A8001B68DB68019308BDCC01060808B5024BF0
:1054B8001B685B69019308BDCC01060808B5024B5F
:1054C8001B681B6A019308BDCC01060808B5024B8E
:1054D8001B685B6A019308BDCC01060808B5024B3E
:1054E8001B681B6B019308BDCC01060808B5024B6D
:1054F8001B68DB6B019308BDCC01060808B5024B9D
:105508001B681B68019308BDA001060808B5024B7B
:105518001B685B68019308BDA001060808B5024B2B
:105528001B689B68019308BDA001060808B5024BDB
:105538001B689B69019308BDA001060808B5024BCA
:105548001B685B6A019308BDA001060808B5024BF9
:105558001B68DB6A019308BDA001060808B5024B69
:105568001B681B6B019308BDA0010608704710B5A6
:105578000446FAF792FD204610BD000070B50446B7
:105588000E46074B0025036040F80C5FFFF7B0FD9F
:1055980030462671FFF724FDA560204670BD00BF88
:1055A800C4920A084FF6FF710079FFF7F1BC17297A
:1055B80002D80079FFF7ECBC70470079FFF7F0BC20
:1055C8000079FFF7F5BCC068FFF7A2BD054A0023C4
:1055D800995C814202D00133082BF9D1581CC0B222
:1055E800704700BFCC920A08400830B51860002404
:1055F8001868E5B2884206D90134082C02D0400860
:105608001860F5E70725024B5B5D137030BD00BFDE
:10561800CC920A082DE9F04380468FB0C0680F4647
:10562800FFF76EFD98F804401422002109A802F043
:1056380010F90B232046002209A9ADF82430FFF702
:10564800DFFC9DF82D404CB19DF82C502DB90C9ED7
:105658009DF834909DF8354003E00024A146264685
:1056680001253B790DB1002B40D19D420BD1BA6881
:10567800B24208D18DF820908DF82140BDF8201055
:10568800BA89914232D023BB8DF80F300DF10F0249
:1056980004ABB9680A98FFF7A7FF3B7905B113BBBC
:1056A800AB4209D000213B7B01917C7B9DF80F2008
:1056B80098F80400009413E0BB68B342F2D38DF865
:1056C80020908DF82140BDF82020BB899A42E9D16D
:1056D80009E000231A4698F8040001930093012179
:1056E800FFF796FC02E0049BB342DBD100200FB029
:1056F800BDE8F08370B5044602FB01F588B0067971
:105708001422002103A802F0A4F80B2303A93046B1
:105718000022ADF80C30FFF773FC02AB0DF1070265
:1057280029460498FFF760FF20799DF80710FFF7D6
:1057380047FC029808B070BD38B50446A56808460D
:105748004DB1FFF743FF012225FA00F12046BDE8DD
:105758003840FFF7CFBF2079BDE83840FFF730BCAD
:1057680008B50079FFF734FCC0B208BD0079FFF72F
:105778003FBC014600228C20FFF782BC0020FFF7C7
:10578800F8BF00004FF69C7337B50D4C00256380B9
:105798004FF6FF732846A3802570FFF713FE02A873
:1057A80040F8045D2A462946FFF772FC019B1E2B30
:1057B80004D10323237011236580A38003B030BD77
:1057C8006C10002010B5044602F0EBF801382318DD
:1057D8002046984206D20278197800F8011B03F88F
:1057E8000129F6E710BD70B50C46911E222920D874
:1057F8002546294610B9234430220EE0B0FBF2F6C4
:1058080002FB1600C1B2092805F8011B94BF30310C
:10581800573105F8011C3046EBE7994202D201F8EE
:10582800012BFAE7002320460B70FFF7CBFF204639
:1058380070BD002070BD08B50123FFF7D4FF08BD77
:1058480010B504460068FFF761FE204610BD10B58C
:105858000446006808B1FFF759FE00232360A360DF
:10586800636010BD38B504460D4600680131FFF786
:1058780055FE10B184E82100012038BD10B5036839
:10588800044613B143688B4207D22046FFF7EAFF6C
:1058980020B1A3680BB922681370012010BD70B540
:1058A8000E46114604461546FFF7E8FF18B920468C
:1058B800FFF7CDFF09E02A463146A560206801F0D0
:1058C800BDFF2268A3680021D154204670BD38B5B9
:1058D8000023044603604360836003730D4639B1B7
:1058E800084602F05EF8294602462046FFF7D7FF31
:1058F800204638BD884210B50B46044607D00968D3
:1059080019B19A68FFF7CBFF01E0FFF7A0FF204627
:1059180010BD10B504460023036043608360037321
:10592800FFF7E8FF204610BD08B582680B4612B99C
:1059380019B9012008BD11B90368187802E0006898
:1059480002F001F8B0FA80F0400908BD83688B4284
:1059580001D9006818B90348002303707047084448
:10596800704700BF72100020F8B506460D468F1824
:105978000024BD420CD0336815F8011B9B683046E3
:105988009847002801DB0444F3E7002C08BF0446CD
:105998002046F8BD70B505460C46084649B102F0E8
:1059A80000F82B68024621462846BDE87040DB68AF
:1059B800184770BD08B5FFF7EDFF08BD03689B6881
:1059C800184738B50D210546FFF7F8FF0A210446A8
:1059D8002846FFF7F3FF204438BD012A98BF0A2262
:1059E80030B50B468BB000218DF824100DF123043F
:1059F800B3FBF2F505FB1233DBB2092B94BF30334E
:105A08003733DBB2214604F801392B46002DEFD19C
:105A1800FFF7C0FF0BB030BD10B422B90368C9B29C
:105A28009B6810BC1847D2B210BCFFF7D6BFFFF76F
:105A3800F3BF2DE9F04107460E4615462AB9BDE8E1
:105A4800F0410368C9B29B6818470A2A02D10029A5
:105A580001DA04E0D2B2BDE8F041FFF7BEBF2D2164
:105A6800FFF7ACFF2A46044671423846FFF7B5FFF8
:105A78002044BDE8F081FFF7DCBF0CB42DE9F0430A
:105A880087B000AF07F1380454F8049B05460E466A
:105A980023464A461421381D3C60FFF74FFD132862
:105AA80005D8391D2846FFF775FF044613E000F1B5
:105AB800080323F00703E846ADEB030D411C23461A
:105AC8004A4668463C60FFF739FD69462846FFF7B5
