:02000004080AE8
:1000000000000A0848A90A080000060006000501C9
:080010000402FD0800000000DD
:0400180070930A08CF
:10001C0009480A4908B5884205D0094A824202D0EB
:10002C00121A08F04DFC0748074A0021121A08F072
:10003C0055FC064808BD00BF000000204CA80A086B
:10004C00D4000020D8000020650F0020650F002090
:10005C0070B506F0D7FC0025054E064CA41BA40871
:10006C00A54200D170BD56F8043B98470135F7E71F
:10007C0018A80A0840A80A0801F0ECB908B501F064
:10008C0073F8BDE8084006F075BC05F001BD05F03D
:10009C00FFBC05F005BD000000210C2008B5024A8C
:1000AC0005F008FCFEE700BFC1570A080078B0FA5B
:1000BC0080F04009704701230370704710B505F0BC
:1000CC0011FC034609483BB1BDE8104000234068D1
:1000DC001A46194605F056BC1A461946406805F0F2
:1000EC0049FCBDE8104005F0F5BB00BFA40D002095
:1000FC0010B5064C00226068022105F02BFC002292
:10010C0060681146BDE8104005F044BCA40D002009
:10011C00F8B50C1E074616460CDA0A2A0AD12D2110
:10012C0007F044F8054661423846F2B207F04DF844
:10013C002844F8BD21460025F6E770B504461D4657
:10014C00049E12B209B202F05FFB2046E9B202F043
:10015C005EFB20463168BDE8704007F023B810B54F
:10016C00044604F085FF2046002104F0B4F8012178
:10017C00204604F0B5FB05F0BDFA4FF4784120465B
:10018C0004F0A9F805F0B6FA4FF4FC61204604F02F
:10019C00A2F805F0AFFA1F21204604F09CF805F0F8
:1001AC00A9FA2046002104F096F8BDE8104005F0AD
:1001BC00A1BA000010B50446002104F08CF82822E6
:1001CC006921204602F020FB0421204602F01FFB8F
:1001DC0006F050FF0A2201462046FFF799FF3649E8
:1001EC00204606F0DFFF06F051FF092803DC20460D
:1001FC00324906F0D7FF06F049FF0A220146204695
:10020C00FFF786FF0321204602F001FB64225521F3
:10021C00204602F0F9FA06F051FF0A220146204668
:10022C00FFF776FF2649204606F0BCFF06F03AFFA2
:10023C000A2201462046FFF76BFF1F49204606F0B5
:10024C00B1FF06F043FF0A2201462046FFF760FF8C
:10025C0006F034FF0A2811DD8C221921204602F009
:10026C00D3FA1849204606F09DFF28212046AA22E1
:10027C0002F0CAFA2046144906F094FF06F01EFF5D
:10028C00022817D106F00EFF0E2813D18C2220461F
:10029C00192102F0B9FA20460C4906F083FF2046DA
:1002AC002821AA2202F0B0FA2046BDE810400849E5
:1002BC0006F078BF10BD00BF84930A082D970A087A
:1002CC0086930A0888930A0898930A08A6930A0842
:1002DC00B7930A0838B50D460021044603F0FBFF1E
:1002EC0000222046114602F08FFA2046032102F02C
:1002FC008EFA20462968BDE8384006F053BF0160ED
:10030C00704700002DE9F0410446064654F8087B7E
:10031C0088B03B6803ADD3F82880084B02930FCC10
:10032C000FC5236805222B70B38B3846009306F15A
:10033C00250102ABC04708B0BDE8F081BCA50A0896
:10034C002DE9F0410446064654F8087B88B03B681A
:10035C0003ADD3F82880084B02930FCC0FC523684C
:10036C0005222B70B38B3846009306F1200102ABAB
:10037C00C04708B0BDE8F081BCA50A082DE9F047DC
:10038C0088B08B6802AF03F104080B3323F007032A
:10039C00ADEB030D28230DF108098DF8083089F811
:1003AC000130322389F802303C23064689F80330A9
:1003BC000D4600231FFA83FA5C1CAB68534509D920
:1003CC005146284606F0D8FF0378CA448AF8043010
:1003DC002346EFE7344654F808CB3D1DDCF80030DB
:1003EC00D3F828A0084B3B600FCC0FC523684246BE
:1003FC002B70B38B4946009360463B46D047183769
:10040C00BD46BDE8F08700BFBCA50A080B460160DD
:10041C000121017198B207F0B9B838B503790446D7
:10042C000D4663B10121008807F0C1F8284606F09B
:10043C0067FA20880021BDE8384007F0B8B838BD0D
:10044C007047704703681847012A03D0022A03D06B
:10045C00002070470160FBE70B680360F8E70000C1
:10046C00014801F0D9B900BF180C0020014801F077
:10047C0085B900BF800100200148FFF79BBE00BF7B
:10048C00340D0020034B1B7813B10348FFF792BEC9
:10049C00704700BF190C0020340D0020012208B554
:1004AC00094B0A481A7001F07DF9002308481946D7
:1004BC001A4601F0C9F90748002101F0B4F9BDE86A
:1004CC0008400548FFF73CBF300D0020800100209C
:1004DC00C40C0020180C002044010020FFF7EEBDD6
:1004EC00002210B5064C074B20461A7001F046F955
:1004FC00204601F049F9BDE810400348FFF702BF60
:10050C0080010020300D0020440100201FB5484917
:10051C00C022A1F1480001F07DFA4549684606F079
:10052C00ECFE6846434906F015FF28B342494348A0
:10053C0001F078FA642006F0E3F941493F4801F0F4
:10054C0071FA642006F0DCF93E493C4801F06AFA85
:10055C00642006F0D5F93C49384801F063FA642070
:10056C0006F0CEF93949354801F05CFA642006F002
:10057C00C7F9374801F002F96846364906F0EAFE39
:10058C0058B335492D4801F04DFA642006F0B8F9FE
:10059C0032492A4801F046FA642006F0B1F9304994
:1005AC00264801F03FFA642006F0AAF92D492348A9
:1005BC0001F038FA642006F0A3F92B491F4801F02A
:1005CC0031FA642006F09CF928491C4801F02AFAFB
:1005DC00642006F095F906F02DFF6846244906F0D4
:1005EC00B9FE68B12349154801F01CFAFFF780FDEC
:1005FC004FF42F7006F084F91F49104801F012FADD
:10060C0068461E4906F0A6FE38B11D490B4801F09C
:10061C0009FA1C49094801F005FA1B491B4801F06D
:10062C0001FA684606F01FFE05B05DF804FB00BF3A
:10063C0018040020C5930A08CA930A08F403002082
:10064C00D2930A08DB930A08E5930A08F0930A0888
:10065C0080010020FC930A0802940A0813940A08EB
:10066C0025940A0838940A084C940A0861940A08DC
:10067C0077940A0882940A08A4940A08CA940A086F
:10068C00CF940A08DA940A0820A40A08D0030020A0
:10069C00436913B183690C301847704713B50021B7
:1006AC000446084605F02EF80023204601A90193C4
:1006BC0005F040F8019C0CB10123237100210120AD
:1006CC0005F020F82CB1236820469B68984700233E
:1006DC00237102B010BD000000B5244B244A1878D9
:1006EC0089B078BB107868BB684606F006FE694690
:1006FC0004A806F024FE04A91E48FFF7EBFD04A88D
:10070C0006F0B1FD1C4801F039F800991B4801F0C6
:10071C0089F901221A4B4FF496711A481A73FFF794
:10072C007CFE694604A806F00AFE174804A9FFF7E8
:10073C0025FE04A806F097FD684606F094FD09B066
:10074C005DF804FB19781378DBB20029F7D0002B85
:10075C00F5D00E4904A806F0D0FD064804A9FFF711
:10076C00B9FD04A806F07FFDE9E700BF190C0020D5
:10077C00300D0020340D00208001002044020020A8
:10078C00700100202801002044010020EC940A088C
:10079C0013B50446054B0A461B7805498DF8003005
:1007AC003C2305F037FF204602B010BD2401002089
:1007BC00FE940A08002307B51A46CDE9003305F06C
:1007CC00A1F803B05DF804FB704710B583680446CC
:1007DC0013B1032201469847204610BDF0B5002501
:1007EC0004468C4685B0134902AF057185600160E3
:1007FC0092E8030087E8030004F10C0696E8030076
:10080C0082E8030097E8030086E803009168A0697A
:10081C006161D1689560D060A161CDE90035614618
:10082C002346054A04F1080004F074FF204605B085
:10083C00F0BD00BFDC960A08A9060A0807B5806857
:10084C00002338B1CDE90013022104F07BFFB0FA8C
:10085C0080F0400903B05DF804FB73B514460646FE
:10086C000D4600222146FFF7E9FFB068002340B196
:10087C0022461946CDE9005304F064FFB0FA80F02B
:10088C00400902B070BD000038B5104B044603603F
:10089C008368A3B16FF000410022FFF7CFFF002166
:1008AC00A06804F077FF237903F0FF0513B104F07F
:1008BC0021FFF8E72946A06804F034FFA56004F195
:1008CC000C00FFF782FF204638BD00BFDC960A08FB
:1008DC0010B50446FFF7D8FF20461C2106F093FE06
:1008EC00204610BD2DE9F04F0025804604468DB002
:1008FC0028F8045B294603224046C94B009501F0B9
:10090C00D3FA04F12803039329460522C54B039817
:10091C00009501F0C9FA012204F14C03049311462D
:10092C00C14B0498009501F0BFFA04F170030593D4
:10093C0001220321BD4B0598009501F0B5FA022266
:10094C000421BB4B009504F1940001F0B6FA03228C
:10095C000421B84B009504F1A00001F052F829468F
:10096C000622B54B009504F1C40001F04AF804F1DD
:10097C00E8030693DFF848A329460222AF4B0698FA
:10098C00009501F091FA534601221121009504F5CE
:10099C00867001F036F801220E21A94B009504F562
:1009AC00987001F02EF804F5AA7307930122172111
:1009BC00A44B0798009501F077FA04F5BC730893E3
:1009CC0003221721A04B0898009501F06DFA9F4F58
:1009DC0004F5CE73099304223B4617210998009520
:1009EC0001F062FA9A4E04F5E0730A93052233463D
:1009FC0017210A98009501F057FA04F5F2730B933E
:100A0C0004F5027B06221721924B0B98009501F0FE
:100A1C004BFA04F50B790722172158468E4B00959B
:100A2C0001F042FA2622162148468C4B009501F023
:100A3C003BFA022216218A4B009504F5147000F043
:100A4C00E0FF534628221621009504F51D7000F096
:100A5C00D8FF2946C02204F5267007F03FFF3B461D
:100A6C0005220121009504F5567001F01DFA33465C
:100A7C0006220121009504F55F7001F015FA0C2295
:100A8C000121784B009504F5687001F00DFA04F51E
:100A9C007A7A0D220121744B009504F5717001F0E6
:100AAC0003FA0B2201215046704B009501F0FCF922
:100ABC0001220B216E4B009504F20C4001F0F4F96D
:100ACC0002220B216B4B009504F5866001F0ECF9CA
:100ADC0003220B21684B009504F2544001F0E4F919
:100AEC0004220B21654B009504F58F6001F0DCF9B5
:100AFC0005220B21624B009504F29C4001F0D4F9C5
:100B0C0006220B215F4B009504F5986001F0CCF99F
:100B1C0007220B215C4B009504F2E44001F0C4F970
:100B2C0008220B21594B009504F5A16001F0BCF98A
:100B3C0001220C21564B009504F22C5001F0B4F913
:100B4C0002220C21534B009504F5AA6001F0ACF97C
:100B5C0003220C21504B009504F2745001F0A4F9BF
:100B6C0004220C214D4B009504F5B36001F09CF967
:100B7C004B4E05220C214B4B009504F2BC5001F05E
:100B8C0093F906220C21484B009504F5BC6001F04A
:100B9C008BF9334607220C21009504F2046001F016
:100BAC0055F9334608220C21009504F5C56001F077
:100BBC004DF9334609223D4E0C21009504F24C6050
:100BCC0001F044F901220F21394B009504F5CE6058
:100BDC0001F082F9334604220F21009504F27C6067
:100BEC0000F00FFF03220F21324B009504F5D46067
:100BFC0001F072F9334605220F21009504F2AC6026
:100C0C002D4F00F0FEFE02220F212C4B009504F517
:100C1C00DA6001F061F9334606220F21009551E0AC
:100C2C000B950A080E950A0811950A081C950A08D6
:100C3C0029950A082C950A0834950A0837950A084C
:100C4C003D950A0857950A0843950A0846950A08DF
:100C5C0049950A084C950A084F950A0852950A08B6
:100C6C0056950A085A950A085D950A0861950A086E
:100C7C0064950A086F950A087A950A0885950A08FA
:100C8C0090950A089B950A08A6950A08B1950A083A
:100C9C00BC950A08C7950A08D2950A08DD950A087A
:100CAC00FE950A08E8950A08F3950A080D960A08B5
:100CBC000A960A0810960A0816960A0813960A0845
:100CCC003A950A0804F2DC6000F09BFE3B460722D2
:100CDC000F2104F5E06001F0DEF8334608220F2105
:100CEC00009504F2247000F08CFE09220F21664B53
:100CFC0004F5E96001F0CFF833460A220F21009584
:100D0C0004F26C7000F07DFE0B220F215F4B04F59A
:100D1C00F26001F0C0F833460C220F21009504F26A
:100D2C00B47000F06EFE3B460B22102104F5FB6004
:100D3C0001F0B1F833460C221021009504F2FC703E
:100D4C0000F05FFE3B460D22102104F5026001F01D
:100D5C00A2F833460E221021009504F6440000F050
:100D6C0050FE3B460F22102104F6680001F093F868
:100D7C00102233461146009504F68C0000F041FE1B
:100D8C003B461122102104F50B6001F084F8334628
:100D9C0012221021009504F6D40000F032FE3B46DE
:100DAC001322102104F6F80001F075F833461422D2
:100DBC001021009504F61C1000F023FE3B46152272
:100DCC00102104F5146001F066F833461622102148
:100DDC00009504F6641000F014FE3B46012210212D
:100DEC0004F6881001F057F83346022210210095C2
:100DFC0004F6AC1000F005FE3B460322102104F56E
:100E0C001D6001F048F8334604221021009504F6C9
:100E1C00F41000F0F6FD3B460522102104F61820D4
:100E2C0001F039F8334606221021009504F63C20D7
:100E3C0000F0E7FD2046079BC4F874BAC4F8603A8A
:100E4C00089BC4F878AAC4F8643A099BC4F8808A51
:100E5C00C4F8683A0A9BC4F8909AC4F86C3A0B9B95
:100E6C00C4F8945AC4F8703A069BC4F87C3A039BB5
:100E7C00C4F8843A049BC4F8883A059BC4F88C3AAD
:100E8C000DB0BDE8F08F00BF19960A081C960A0831
:100E9C0008B50021074800F0C6FC0023F0211A46D3
:100EAC00054800F0D1FC054800F08EFC0122044BF3
:100EBC001A7008BD180C0020C40C00208001002002
:100ECC00190C002010B5074C074800F0E2FC204636
:100EDC0000F05AFC204600F051FC0022034B1A7023
:100EEC0010BD00BF80010020C40C0020190C002094
:100EFC0073B53F4B1B782BB93E4B1B7813B93E484F
:100F0C0000F0D1FC00213D4805F0DFFF00286CDD2E
:100F1C0000243A4E01AD304605F0F9FD0134E4B23F
:100F2C00042C05F8010BF6D19DF80430142B58D184
:100F3C009DF80530142B58D19DF806301E2B05D189
:100F4C009DF807305A2B01D1FFF7A2FF9DF8063010
:100F5C001E2B4AD19DF807305B2B46D102B0BDE861
:100F6C007040FFF7AFBF9DF80530322B3DD19DF897
:100F7C0006301E2B06D19DF807305C2B02D1204881
:100F8C0000F04AFC9DF806301E2B07D19DF8073067
:100F9C005B2B03D101211A4800F045FC9DF806306B
:100FAC001E2B22D19DF807305A2B1ED1002114483C
:100FBC0002B0BDE8704000F036BC9DF805300C2B3B
:100FCC0013D19DF806300C2B0FD19DF807300C2B4C
:100FDC000BD14FF496710B4802B0BDE87040FFF78F
:100FEC001CBA322BBFD00C2BE7D002B070BD00BFA7
:100FFC00300D0020190C0020C40C0020D80000205B
:10100C00180C00202801002008B50A4800F066FBE7
:10101C0070B1094B1A7882F001021A701B781BB15F
:10102C00BDE80840FFF734BFBDE80840FFF74ABFF2
:10103C0008BD00BF30010020190C00201FB5684608
:10104C0006F05BF96846364906F084F910B10022C7
:10105C00344B1A706846344906F07CF910B1012201
:10106C00304B1A703149684606F074F930496846BD
:10107C0006F070F968462F4906F06CF918B1C821D2
:10108C002D48FFF7CAF968462C4906F063F910B1F0
:10109C002B4800F0C1FB68462A4906F05BF908B101
:1010AC0006F0C8F96846284906F054F990B10122B7
:1010BC00264B27481A7000F075FB0023254819466B
:1010CC001A4600F0C1FB1E48002100F0ACFB224880
:1010DC00FFF736F96846214906F03CF958B1002271
:1010EC001A4B1B481A7000F049FB194800F04CFBD6
:1010FC001948FFF707F96846194906F02BF908B1AA
:10110C00FFF7C6FE6846174906F024F908B1FFF749
:10111C00D9FE684606F0A7F805B05DF804FB00BFE1
:10112C001F960A080000002028960A0830960A0824
:10113C0037960A08CA940A08280100203D960A0826
:10114C00180C002047960A084E960A08300D00200D
:10115C0080010020C40C00204401002054960A0891
:10116C005B960A0859960A0838B504F033FB1F4CF5
:10117C001F4B60601B7813B91E4800F033FB04F062
:10118C0029FB1D4B186004F09DFB04F023FBA060B1
:10119C00238801339BB2238023889BB2B3F5966FCF
:1011AC0006D1237B0025D3B91448FFF703F825801B
:1011BC0023889BB2B3F5167F04D1237B8BB90F48E0
:1011CC00FEF7F8FF6368A268323393420CD9636868
:1011DC00A0683233181ABDE8384005F091BB25736E
:1011EC00E5E700232373EDE738BD00BF7001002055
:1011FC00190C002080010020A00E0020340D0020CE
:10120C0010B5264C204600F091FA221D10462449B8
:10121C0000F0A7FB04F50B721046224900F0A1FB6D
:10122C0004F128021046204900F098FB04F14C020E
:10123C0010461E4900F095FB04F1700210461C4943
:10124C0000F08CFB04F57A7210461A4900F089FB09
:10125C0004F502721046184900F083FB04F5F27293
:10126C001046164900F07DFB04F5E0721046144957
:10127C0000F077FB04F5CE721046124900F071FBBA
:10128C0004F5BC721046104900F06BFB04F5AA7211
:10129C001046BDE810400D4900F063BB80010020F2
:1012AC00A9040A0819050A086D040A08E9040A08C1
:1012BC00ED040A084F040A0879040A08A5140A0860
:1012CC00C1140A08DD140A08F9140A0815150A08CD
:1012DC0070B53E4886B03E4C05F080FE3D4DFFF7A4
:1012EC008FFF10213C48FFF791F80F21204600F0AA
:1012FC0067FA284600F09BFA642328461A461946DA
:10130C00364D00F0A1FA1E21204600F059FA28466D
:10131C0000F06CFA0121284600F085FA4FF4FA70BF
:10132C0005F0EEFA284600212D4D00F07CFA2D2117
:10133C00204600F045FA02AE2846FEF710FF304674
:10134C00284905F0DAFF142202231146284600969C
:10135C00FEF7F3FE304605F086FF4621204600F0EE
:10136C002FFA214800F0A8F95521204600F028FA60
:10137C001E4800F0CBFA5A21204600F021FA012039
:10138C0005F072FB00221146104605F07DFB012191
:10139C00002005F08CFB002005F066FB2846FEF7CC
:1013AC0009FF6421204600F00BFA2046104C00F097
:1013BC00E5F9002241F29A01204605F0D5FB2146C1
:1013CC000C48FEF79CFF06B070BD00BF0000E0C0EB
:1013DC0080010020C40C002028010020180C0020E3
:1013EC00340D002060960A08300100201C0C0020EF
:1013FC00D80000204401002008B500226FF0004105
:10140C000448FFF72AFA00226FF000410248FFF768
:10141C0024FA08BD880C0020A40C002008B507494C
:10142C000748FFF7C7F907490748FFF7C3F9BDE8B5
:10143C00084006490648FFF7BDB900BFE5060A0893
:10144C006E960A08D5070A0873960A0849100A0806
:10145C0078960A0808B5FFF73BFFFFF7CDFFFFF7BB
:10146C0017FDBDE80840FFF7D9BF38B5046805463D
:10147C007CB16368013B63605BB9236820469B6861
:10148C009847A368013BA3601BB923682046DB681F
:10149C009847284638BD000007B505496846FFF750
:1014AC0077F901A8FFF7E1FF03B05DF804FB00BF7B
:1014BC0080960A0807B505496846FFF769F901A83F
:1014CC00FFF7D3FF03B05DF804FB00BF94960A0846
:1014DC0007B505496846FFF75BF901A8FFF7C5FF9B
:1014EC0003B05DF804FB00BFA2960A0807B50549D6
:1014FC006846FFF74DF901A8FFF7B7FF03B05DF899
:10150C0004FB00BFB8960A0807B505496846FFF703
:10151C003FF901A8FFF7A9FF03B05DF804FB00BF7A
:10152C00CB960A08F0B500244B4D4C4B89B01C707F
:10153C000A2202231821284601F0AFF907230322BF
:10154C006C61CDE901320423454D00930622022340
:10155C000521444802F014FF02220C21284602F017
:10156C00B7FAC5F80E40404800F0F2FC3F48FFF7D0
:10157C00B9F904F03DFD3E4B3E4D18601823A822EE
:10158C000093C0210123281D04F0F0FE41F27201EA
:10159C00394B85F82440C5E90713384B38481A688D
:1015AC001B79C5F8252085F8293005F027FC354B2B
:1015BC00354E364D04AA64210493354823460796CC
:1015CC000695FFF70BF904A8FFF7FFF8314B04AAB7
:1015DC00C821049330482346CDE90656FFF7FEF8A0
:1015EC0004A8FFF7F2F82D4B04AA4FF47A71049378
:1015FC002B482346CDE90656FFF7F0F804A8FFF771
:10160C00E4F8284B04AA42F21071049326482346AE
:10161C00264FCDE90656FFF7E1F804A8FFF7D5F8F9
:10162C00234604AA47F230512148CDE906560497C7
:10163C00FFF7D4F804A8FFF7C8F823464EF660214C
:10164C0004AA1C48CDE906560497FFF7C7F804A86E
:10165C00FFF7BBF809B0F0BDC40C0020240100203A
:10166C0030010020340D00201C0C002080010020D3
:10167C00C00C00204401002028283241E8960A08BA
:10168C00D8000020FD0E0A0851040A0855040A0867
:10169C00880C002015100A08A40C00204D040A0820
:1016AC006C0C002085040A08DC0C002091040A084C
:1016BC00F80C0020140D0020002310B50446837391
:1016CC00C3730374437402F0EFFD204602F0E9FA91
:1016DC00BDE810404FF4FA7005F012B938B5044665
:1016EC0002F059FC10B90025284638BD204602F0FE
:1016FC00B0FD0028F7D06178A278E3782579E42949
:10170C00A173E273237465740ED13C2A0CD1262B81
:10171C000AD1A5F1EB035D425D41204602F0A2FD2A
:10172C00204602F05AFADFE70025F6E710B54FF431
:10173C00165000F01DFA4FF4E13000F0B9FA0C48E5
:10174C0000F0D8F9642005F0DBF80A4C0A4800F0E8
:10175C00D1F9642005F0D4F8204600F0CBF96420D0
:10176C0005F0CEF82046BDE8104000F0C3B900BF2C
:10177C00ED960A08FC960A08F5960A08014800F04E
:10178C00B9B900BF03970A0808B5044800F0B2F9CC
:10179C00BDE80840024800F0ADB900BF0A970A083E
:1017AC0014970A0808B5044800F0A4F9BDE80840ED
:1017BC00024800F09FB900BF1D970A0827970A0836
:1017CC00943000F083BB000008B5044800F092F997
:1017DC00BDE80840024800F08DB900BF2F970A08F9
:1017EC0037970A0800F5266000F0E4B938B50446CE
:1017FC0000250121112005F0C9FE012111202570C1
:10180C0005F0D5FE4FF4FA7005F07AF82946BDE8DC
:10181C003840112005F0CBBE017881F00101017038
:10182C00112005F0C4BE0170112005F0C0BE10B52A
:10183C000446282102F01DF9204601F009F8204643
:10184C00BDE8104001F03AB82DE9F34104460E46CC
:10185C00174698460025A9B23B4632462046CDF89D
:10186C000080013502F0DAF8182DF4D1204602B0D0
:10187C00BDE8F04101F022B837B504469DF8185088
:10188C00009502F0CBF8204603B0BDE8304001F0E3
:10189C0015B810B50446282102F0EBF82046BDE837
:1018AC00104001F00BB813B5838A04469B0708D18E
:1018BC0007F040F8032390FBF3F303EB4303C01A48
:1018CC00E082E38AA18A012B12D0022B17D033B904
:1018DC00E2238A22009320462B23FFF7CDFFA38A15
:1018EC0001339BB2182B88BF0023A38202B010BD1A
:1018FC000A23642220460093FFF7BEFFEFE7642221
:10190C00502320460092FFF7B7FFE8E710B51821E7
:10191C00044600F03EFC08B905F08CFD2046012180
:10192C0000F00EFCBDE81040142004F0E9BF0000EC
:10193C000022014B1A707047680D002037B5044621
:10194C00069D009500F08BFA00232046C4E906336F
:10195C00E36063612361236203B030BDC0E903120D
:10196C007047C0E905127047C3680BB1006918478E
:10197C00704743690BB180691847704710B504462E
:10198C00006A00F073FAE3691BB1206ABDE81040ED
:10199C00184710BD2DE9F047DDF820A08846914688
:1019AC001D46064658B30027BBB256F8234034B345
:1019BC00204600F062FA80450ED1204600F05FFA16
:1019CC00814509D1204600F05CFA012D06D1204654
:1019DC00BDE8F047FFF7C8BF0137E5E725B920465A
:1019EC00BDE8F047FFF7C5BF022D06D15246294688
:1019FC002046BDE8F047FFF7C1BF032DF6D0BDE888
:101A0C00F08737B50446069D0095FFF797FF2046F3
:101A1C0003B030BD13460A46014900F036BA00BF88
:101A2C003E970A080A46014900F032BA3E970A0866
:101A3C002DE9F04F85B00C4606460292002850D096
:101A4C00002950D000270A46002106F047FF03F07A
:101A5C00C1FEB8463D46DFF89490DFF894B0019093
:101A6C0003F0B8FE019BC01A029B834227D303F0FC
:101A7C00B1FEC9F8000003F025FF631EDBF800A0DF
:101A8C000393DAF80010504609698847A8B103F0AF
:101A9C00A1FEC9F8000003F015FFDAF8001050465B
:101AAC0049698847C0B2B8F1000F13D0FF280AD19A
:101ABC000135EDB2022DE4D901E0022DD0D9384622
:101ACC0005B0BDE8F08F039B9F42DADA791CF05524
:101ADC008FB2D6E7A0F17003D3F1000848EB0308EE
:101AEC00CFE70746EBE70F46E9E700BFA00E002063
:101AFC00C00C002038B50546084B1C6823682046EE
:101B0C005B6998470028F9DA2946204605F04AFB1C
:101B1C002046BDE83840024905F044BBC00C00200B
:101B2C0042970A0837B50024104B01461D680194F2
:101B3C00284605F0FEFA042228460DEB020105F0BA
:101B4C00FAFA9DF80430012B0DD19DF806409DF852
:101B5C00050020409DF807402040A0F1FF035842AB
:101B6C00584103B030BD2046FBE700BFC00C00203D
:101B7C000C4B014610B5186804F034FA0A48FFF70C
:101B8C00B9FF0A48FFF7B6FF6420FFF7CBFF044606
:101B9C000748FFF7AFFF6420FFF7C4FF002C08BF16
:101BAC00002010BDC00C002020A40A0846970A088B
:101BBC0003970A08F7B50746394B3A4C1D682B6852
:101BCC0028461B699847002868D003F003FE364B63
:101BDC00186003F077FE0A2004F092FE2B6828466A
:101BEC005B6998472B68C6B2652E1B691AD12846CB
:101BFC0098470528E3DD267001262B6828465B698B
:101C0C009847A0550136072EF7D100226179237928
:101C1C00E2710B40A1790B40FF2BD0D10092E378FD
:101C2C00A2781AE0662E1DD1284698470328C6DDF7
:101C3C00267001262B6828465B699847A05501360B
:101C4C00052EF7D10022E178A37862710B4021793F
:101C5C000B40FF2BB3D10123009238466178FFF77C
:101C6C0099FEACE7722EAAD1284698470928A6DD22
:101C7C00267001262B6828465B699847A0550136CB
:101C8C000C2EF7D10023A27A2373E37A1340627AE5
:101C9C001340FF2B93D1054B0093C0E703B0F0BD6D
:101CAC00C00C0020690D0020A00E00206D0D00203E
:101CBC0030B51A4B054653F8200F85B09B88009021
:101CCC00ADF8043000236846CDF80630CDF80A3064
:101CDC00ADF80E3006F09FFE0A220DEB00012846EF
:101CEC0005F093FB6846FFF705FF0A2004F008FE99
:101CFC000B4B1C6823682046DB699847204604F090
:101D0C0074F92946204604F06DF90648FFF7F2FEF7
:101D1C006420FFF707FF05B030BD00BF53970A08DA
:101D2C00C00C002020A40A0830B50D4689B001462D
:101D3C006846144606F04BFE68460E4906F02EFE29
:101D4C002946684606F02AFE0B49684606F026FE30
:101D5C00684606F060FE0A220DEB0001204605F0F5
:101D6C0054FB6846FFF7C6FE6420FFF7DBFE09B0A4
:101D7C0030BD00BF75940A084E970A08F0B50746A7
:101D8C000E4614461D46124B89B053F8300F1B22D9
:101D9C001B79009000210DF105008DF8043006F040
:101DAC009DFD3946684606F0F9FD6846094906F07E
:101DBC00F5FD3146684606F0F1FD6846FFF79AFEE0
:101DCC00642229462046FFF733FE09B0F0BD00BF60
:101DDC0053970A0875940A08F8B5064600AF1046E2
:101DEC000D46144606F017FE00F1270323F00703F7
:101DFC00ADEB030D00F120020021684606F06EFDEC
:101E0C003146684606F0E3FD68460D4906F0C6FD0E
:101E1C002946684606F0C2FD68460A4906F0BEFD32
:101E2C002146684606F0BAFD0749684606F0B6FD3D
:101E3C006846FFF75FFE6420FFF774FEBD46F8BDF1
:101E4C0075940A0850970A0851970A0837B5044642
:101E5C00069D0095FFF772FD204603B030BD10B50E
:101E6C004360029B01704270836010BD83681BB19C
:101E7C00022904BF12681A607047007870474078D6
:101E8C00704770474068FFF74FBF4068FFF776BF59
:101E9C004068FFF7A1BF37B5002504460095FFF752
:101EAC004DFD204603B030BD37B50446069D009568
:101EBC00FFF744FD204603B030BD37B50446069D00
:101ECC000095FFF7CCFF204603B030BD0A46014910
:101EDC00FFF7D8BFA3970A0837B50446069D0095AF
:101EEC00FFF7BDFF204603B030BD704770470000C0
:101EFC000B4610B5282204460021184606F0EEFCCD
:101F0C000B22084906F0A1FD002201210346C272F2
:101F1C00C160A0695A620022C3E904019A61DA61C6
:101F2C001A6210BDA7970A0810B504462C2105F0BB
:101F3C006AFB204610BD0000024B986808B103F004
:101F4C0011BC7047840D00200368C9B29B68184708
:101F5C00064A02604FF0FF3282614277C283FF2251
:101F6C0080F8202011224262704700BFB8970A08FF
:101F7C0038B50B4D2978BFF35B8F11F001040DD1EF
:101F8C002846FEF793F848B12146064803F03DFE7B
:101F9C002846FEF790F8044806F096FB014838BD39
:101FAC00800D0020840D0020451F0A082DE9F0410A
:101FBC0090F92030054601330F4606D1FFF7D8FFC4
:101FCC003946BDE8F04103F03DBF002407264FF031
:101FDC00010895F92000002180B205F0E8FA95F986
:101FEC001E0008FA06F1394080B205F0E0FA95F9C6
:101FFC002000012180B205F0DAFA95F91F00640087
:10200C0080B2E4B205F0ECFA08B144F00104013EF0
:10201C00DFD22046BDE8F08108B5FFF7A9FF01210A
:10202C0003F01EFEFFF7A4FF0549012203F0BAFEE0
:10203C00FFF79EFFBDE80840002103F01FBE00BF64
:10204C0020A1070070B590F91D30044601330E46EF
:10205C00154616D105F01EFA217F04F077F805F02D
:10206C0019FA036831469B68984705F013FA036820
:10207C0029469B68984705F00DFABDE8704004F0BE
:10208C0070B890F92030013301D1FFF7C5FF94F9F6
:10209C001D00002180B205F08AFA06F07F0120466F
:1020AC00FFF784FF29462046FFF780FF94F91D00B7
:1020BC000121BDE8704080B205F079BA38B590F9CD
:1020CC001D30044601330D461DD105F0E3F994F99A
:1020DC001C1004F03FF805F0DDF9036829469B68F5
:1020EC00984705F0D7F904F03CF805F0D3F9012234
:1020FC00217F04F028F805F0CDF903685B69984757
:10210C00C5B2284638BD90F92030013301D1FFF714
:10211C0083FF94F91D00002180B205F048FA45F0C8
:10212C0080012046FFF742FF00212046FFF73EFFCB
:10213C00054694F91D00012180B205F038FAE0E75C
:10214C0038B50D4623210446FFF7B8FF20F03002C6
:10215C0042EA05122046BDE838402321D2B2FFF7EF
:10216C0071BF232108B5FFF7A9FFC0F3011008BD0B
:10217C0038B50D4620210446FFF7A0FF00F00F02F2
:10218C0042EA05122046BDE838402021D2B2FFF7C2
:10219C0059BF10B50446017790F91D00421C23D19C
:1021AC0005F078F903F0A0FF0F212046FFF786FF1A
:1021BC0033283DD1072220212046FFF743FF07217A
:1021CC002046FFF7D5FF882223212046FFF73AFF50
:1021DC00102222212046FFF735FF204680221F21A6
:1021EC00FFF730FF012010BD012180B205F0DFF9AF
:1021FC0094F91D00012180B205F0C8F994F9200072
:10220C00431C04D1FFF7B4FE03F00EFDCCE7012113
:10221C0080B205F0BBF994F91E00012180B205F0E3
:10222C00B5F994F91F00002180B205F0AFF9BBE7B6
:10223C000020D8E738B590F91D30044601336FD132
:10224C0005F028F994F91C1003F084FF05F022F92D
:10225C00A821FFF779FE05F01DF903F082FF05F0C8
:10226C0019F90622217F03F06EFF05F013F90368BC
:10227C004F4D5B699847E08005F00CF903685B698A
:10228C009847E38805EA00201843E08005F002F93E
:10229C0003685B699847208105F0FCF803685B696B
:1022AC009847238905EA00201843208105F0F2F8AD
:1022BC0003685B699847608105F0ECF803685B691B
:1022CC00984705EA00256089054365812046FFF79C
:1022DC0048FF032862D0022863D0012864D000286C
:1022EC0043F6FC7018BF012005F03CFE0546B4F91E
:1022FC00060005F037FE294605F03CFFE060B4F916
:10230C00080005F02FFE294605F034FF2061B4F9D2
:10231C000A0005F027FE294605F02CFF606138BD48
:10232C0090F92030013301D1FFF776FE94F91D00AE
:10233C00002180B205F03BF9E8212046FFF736FE7C
:10234C00FF212046FFF732FEFF21E0802046FFF7F9
:10235C002DFEE388FF2143EA0023E3802046FFF7AC
:10236C0025FEFF2120812046FFF720FE2389FF2137
:10237C0043EA002323812046FFF718FEFF216081EA
:10238C002046FFF713FE6389012143EA002394F9E9
:10239C001D00638180B205F00AF997E74FF40060E5
:1023AC00A2E74FF480509FE741F6FE709CE700BF18
:1023BC0000FFFF0070B50C46054620220021201DB1
:1023CC0006F08CFA24232360AB690126636000239A
:1023DC0028462361A660FFF72DFFEB68304663614A
:1023EC002B69A3616B69E36170BD2DE9F04F1F464A
:1023FC0085B0BDF93880A7EB010AA8EB0209B9F149
:10240C00000FB8BFC9F10009BAF1000FB8BFCAF18B
:10241C00000AD14583460C461646BDF83C3004DD17
:10242C003A46344647460E469046BC4205DD324697
:10243C004646904622463C4617463A1B91B20091BE
:10244C00A8EB06010029B8BF4942C2F3C03501917F
:10245C0011B24645B4BF01224FF0FF320D446D104E
:10246C000292BC421CDCDBF80020D145D2F8108073
:10247C00C7BF314622463246214603935846C047D1
:10248C00019A039BAD1AA9B22DB2002D05DA029A5E
:10249C001644009A36B255182DB2013424B2E0E736
:1024AC0005B0BDE8F08F2DE9F347044616468A4681
:1024BC001D46BDF82C800768BDF92890CDF800802A
:1024CC00FF69B847236809F1FF32CDF80080324428
:1024DC0051462046DF6912B22B46B8472368CDF827
:1024EC0000803246514620469F694B46B8472368C8
:1024FC00013DCDF8288005EB0A019D6932464B461B
:10250C002046AC4609B202B0BDE8F047604737B58B
:10251C00013BBDF81850134404681BB2009301959D
:10252C000B466469A04703B030BD37B5BDF81850F1
:10253C000468CDE90025013B0B4464691BB2A0473C
:10254C0003B030BD2DE9F347054616460C46BDF9E0
:10255C0028A0BDF82C90CF18BC420CDA2B68CDF813
:10256C0000902146D3F81880324653462846013451
:10257C00C04724B2F0E702B0BDE8F08713B5019173
:10258C00B0F90E1002680091546A0022B0F90C30B8
:10259C001146A04702B010BD70470A292DE9FF4132
:1025AC0004460D460CD1436A428A5978037E01FBDE
:1025BC000323438200232382012004B0BDE8F08171
:1025CC000D29F9D0027E03680292C28A0192828A96
:1025DC0000921E6BB0F912200B46B0F91010B047E8
:1025EC00E37E94F91D70ED1A636A002F03EB8502EC
:1025FC0013F82560557815DDE28AA38A934211D031
:10260C00237E0192218A03FB05F206FB031120684D
:10261C0012B20092D0F824807B432046B4F91220E9
:10262C0009B2C04794F91D30208A227E334403FB43
:10263C00020394F828001BB2114623820028BBD059
:10264C00B4F90C0006FB12029342B5DD638A01FB60
:10265C0005356582AEE700000423064A83764262A4
:10266C000122054B427703621A78C2765B780377B6
:10267C00704700BF02A00A0808980A0838B5002362
:10268C00436003614FF0FF3343610123064D018129
:10269C008181056004214281C281038380F8283046
:1026AC00FFF7DAFF38BD00BFD4970A082DE9F04FC9
:1026BC008BB00592BDF8502081460692BDF854208F
:1026CC0000260792C27E9DF858709A4265D8047F06
:1026DC009C4262D39B1ADBB2B9F90C208A4240F3BC
:1026EC008380B9F90E20059882427DDDD9F824400B
:1026FC009A00099204EB830214F8233007FB0313AE
:10270C00002B71DD537807FB0303002B6CDD538822
:10271C008CB202339BB2039300230493BBB2089395
:10272C00D9F82430099A9DF9105013445B789D42D6
:10273C005ADA4FF00008BDF81430089AADB205FB18
:10274C0002321D440FFA82FA2DB2D9F824200998CE
:10275C004FFA88F1125C5FFA88F3914240DA5A071B
:10276C0007D1039B0398D9F8202001339BB2165C48
:10277C000393330621D5012FD9F8002089B20ED14D
:10278C00D2F810B0069B21442A46484609B2D847D5
:10279C007600F6B208F10108D7E733469CE70898B3
:1027AC003BB201FB00410698CDE9003009B2D2F8EA
:1027BC0024B048465246D847EAE7DDE9062393425F
:1027CC00E6D0012FD9F8002089B203D1D2F810B08D
:1027DC002144D9E708983BB201FB00410798E3E795
:1027EC00049B013304939BE70BB0BDE8F08F70B4EE
:1027FC00BDF80C40BDF810509DF814600394CDE961
:10280C00045670BCFFF752BF018242827047012907
:10281C0038BF01210176704738B50446C0680D46B3
:10282C0008B103F03DF9A379062B0CBF042003205B
:10283C00684380B2A08003F02BF9E06028B100213E
:10284C00A28806F04BF8658038BDA0806080FBE75D
:10285C0010B504460121C07904F098FE0021E079FE
:10286C0004F0A5FE0123237010BD38B5037805468E
:10287C000C461BB10021C07904F088FE2B78EC715A
:10288C0053B1A4B22046012104F080FE2046BDE8DD
:10289C003840002104F08BBE38BD70B500250446CD
:1028AC0016468371C0E9035505700572FFF7B4FF36
:1028BC0020463146FFF7D9FF204670BDC368002B78
:1028CC0000F04184F0B583790446023BDBB2042B63
:1028DC008CBF3225284A87B098BF52F8235002F09B
:1028EC0071FF2369C01AA842F9D372B6A388A579DF
:1028FC00ADF80A30BDF80A30022DE1689BB200F049
:10290C006E82072D00F06B82062D00F01D84052DC4
:10291C0000F0A183082D00F09E83002D40F04F8520
:10292C00002B00F092834FF40006144A0496BDF875
:10293C000A300331033B9BB2ADF80A3011F8033C6B
:10294C00DBB28DF8073011F8023CDBB28DF80630A3
:10295C0011F8013CDBB28DF808309DF807709DF83A
:10296C0006309DF808001B0243EA07430343039318
:10297C008DF805501BE100BF04A40A08900D00203F
:10298C00004600BF00BF00BF00BF00BF00BF00BFBC
:10299C0000BF00BF00BF00BF00BF00BF00BF00BF33
:1029AC0000BF00BF00BF00BF00BF00BF00BF00BF23
:1029BC0000BF00BF00BF00BF00BF00BF00BF00BF13
:1029CC0000BF00BF00BF00BF00BF00BF00BF00BF03
:1029DC0000BF00BF00BF00BF00BF00BF00BF00BFF3
:1029EC0000BF00BF00BF00BF00BF00BF00BF00BFE3
:1029FC0000BF00BF00BF00BF00BF00BF00BF00BFD3
:102A0C0000BF00BF00BF00BF00BF00BF00BF00BFC2
:102A1C0000BF00BF00BF00BF00BF00BF00BF00BFB2
:102A2C0000BF00BF00BF00BF00BF00BF00BF00BFA2
:102A3C0000BF00BF00BF00BF00BF00BF00BF00BF92
:102A4C0000BF00BF00BF00BF00BF00BF00BF00BF82
:102A5C0000BF00BF00BF00BF00BF00BF00BF00BF72
:102A6C0000BF00BF00BF00BF00BF00BF00BF00BF62
:102A7C0000BF00BF00BF00BF00BF00BF00BF00BF52
:102A8C0000BF00BF00BF00BFE3791068C3EBC303F6
:102A9C0000EB8307BF8850F823305F83004600BFEC
:102AAC0000BF00BF00BF00BF00BF00BF00BF00BF22
:102ABC0000BF00BF00BF00BF00BF00BF00BF00BF12
:102ACC0000BF00BF00BF00BF00BF00BF00BF00BF02
:102ADC0000BF00BF00BF00BF00BF00BF00BF00BFF2
:102AEC0000BF00BF00BF00BF00BF00BF00BF00BFE2
:102AFC0000BF00BF00BF00BF00BF00BF00BF00BFD2
:102B0C0000BF00BF00BF00BF00BF00BF00BF00BFC1
:102B1C0000BF00BF00BF00BF00BF00BF00BF00BFB1
:102B2C0000BF00BF00BF00BF00BF00BF00BF00BFA1
:102B3C0000BF00BF00BF00BF00BF00BF00BF00BF91
:102B4C0000BF00BF00BF00BF00BF00BF00BF00BF81
:102B5C0000BF00BF00BF00BF00BF00BF00BF00BF71
:102B6C0000BF00BF00BF00BF00BF00BF00BF00BF61
:102B7C0000BF00BF00BF00BF00BF00BF00BF00BF51
:102B8C0000BF00BF00BF00BF00BF00BF00BF00BF41
:102B9C0000BF00BF00BF049B5B0804939DF8053089
:102BAC000133DBB2172B8DF8053000F22787E37960
:102BBC001068C3EBC30300EB8307BF8850F82330C6
:102BCC001F830398049B18427FF4DAAE004600BFC3
:102BDC0000BF00BF00BF00BF00BF00BF00BF00BFF1
:102BEC0000BF00BF00BF00BF00BF00BF00BF00BFE1
:102BFC0000BF00BF00BF00BF00BF00BF00BF00BFD1
:102C0C0000BF00BF00BF00BF00BF00BF00BF00BFC0
:102C1C0000BF00BF00BF00BF00BF00BF00BFE37913
:102C2C001068C3EBC30300EB8307BF8850F8233055
:102C3C005F83004600BF00BF00BF00BF00BF00BFE6
:102C4C0000BF00BF00BF00BF00BF00BF00BF00BF80
:102C5C0000BF00BF00BF00BF00BF00BF00BF00BF70
:102C6C0000BF00BF00BF00BF00BF00BF00BF00BF60
:102C7C0000BF00BF00BF00BF00BF00BF00BF00BF50
:102C8C0000BF00BF00BF00BF00BF00BF00BF00BF40
:102C9C0000BF00BF00BF00BF00BF00BF00BF00BF30
:102CAC0000BF00BF00BF00BF00BF00BF00BF00BF20
:102CBC0000BF00BF00BF00BF00BF00BF00BF00BF10
:102CCC0000BF00BF00BF00BF00BF00BF00BF00BF00
:102CDC0000BF00BF00BF00BF00BF00BF00BF00BFF0
:102CEC0000BF00BF00BF00BF00BF00BF00BF00BFE0
:102CFC0000BF00BF00BF00BF00BF00BF00BF00BFD0
:102D0C0000BF00BF00BF00BF00BF00BF00BF00BFBF
:102D1C0000BF00BF00BF00BF00BF00BF00BF00BFAF
:102D2C0000BF00BF00BF00BF00BF00BF00BF00BF9F
:102D3C0000BF00BF00BF00BF00BF00BF00BF00BF8F
:102D4C0000BF00BF00BF00BF00BF00BF00BF00BF7F
:102D5C0000BF00BF00BF00BF00BF00BF00BF00BF6F
:102D6C0000BF00BF00BF00BF00BF00BF00BF00BF5F
:102D7C0000BF00BF00BF00BF00BF00BF00BF00BF4F
:102D8C0000BF00BF00BF00BF00BF00BF00BF00BF3F
:102D9C0000BF00BF00BF00BF00BF00BF00BF00BF2F
:102DAC0000BF00BF00BF00BF00BF00BF00BF00BF1F
:102DBC0000BF00BF00BF00BF00BF00BF00BF00BF0F
:102DCC0000BF00BF00BF00BF00BF00BF00BF00BFFF
:102DDC0000BF00BF00BF00BF00BF00BFDBE6002B81
:102DEC0000F033814FF400050026134A0495BDF81A
:102DFC000A300331033B9BB2ADF80A3011F8033CA7
:102E0C00DBB28DF8063011F8023CDBB28DF80730DE
:102E1C0011F8013CDBB28DF808309DF806709DF876
:102E2C0007309DF808001B0243EA07430343039352
:102E3C008DF8056080E000BF900D0020004600BFBB
:102E4C0000BF00BF00BF00BF00BF00BF00BF00BF7E
:102E5C0000BF00BF00BF00BF00BF00BF00BF00BF6E
:102E6C0000BF00BF00BF00BF00BF00BF00BF00BF5E
:102E7C0000BF00BF00BF00BF00BF00BF00BF00BF4E
:102E8C0000BF00BF00BF00BF00BF00BF00BF00BF3E
:102E9C0000BF00BF00BF00BF00BF00BF00BF00BF2E
:102EAC0000BF00BF00BF00BF00BF00BF00BF00BF1E
:102EBC0000BF00BF00BF00BF00BF00BF00BF00BF0E
:102ECC0000BF00BF00BF00BF00BF00BF00BF00BFFE
:102EDC0000BF00BF00BFE3791068C3EBC30300EB76
:102EEC008307BF8850F823305F83004600BF00BFC4
:102EFC0000BF00BF00BF00BF00BF00BF00BF00BFCE
:102F0C0000BF00BF00BF00BF00BF00BF00BF00BFBD
:102F1C0000BF00BF00BF00BF00BF00BF00BF00BFAD
:102F2C00049B5B0804939DF805300133DBB2172B2F
:102F3C008DF8053000F28380E3791068C3EBC3038E
:102F4C0000EB8307BF8850F823301F830398049B42
:102F5C0018427FF473AF004600BF00BF00BF00BF34
:102F6C0000BF00BF00BF00BF00BF00BF00BF00BF5D
:102F7C0000BF00BF00BF00BF00BF00BF00BFE379B0
:102F8C001068C3EBC30300EB8307BF8850F82330F2
:102F9C005F83004600BF00BF00BF00BF00BF00BF83
:102FAC0000BF00BF00BF00BF00BF00BF00BF00BF1D
:102FBC0000BF00BF00BF00BF00BF00BF00BF00BF0D
:102FCC0000BF00BF00BF00BF00BF00BF00BF00BFFD
:102FDC0000BF00BF00BF00BF00BF00BF00BF00BFED
:102FEC0000BF00BF00BF00BF00BF00BF00BF00BFDD
:102FFC0000BF00BF00BF00BF00BF00BF00BF00BFCD
:10300C0000BF00BF00BF00BF00BF00BF00BF00BFBC
:10301C0000BF00BF00BF00BF00BF00BF00BF00BFAC
:10302C0000BF00BF00BF00BF00BF00BF00BF00BF9C
:10303C0000BF00BF00BF00BF00BF00BF70E7BDF8FE
:10304C000A309BB2002B7FF4D1AE62B602F0BAFB11
:10305C00206107B0F0BD002BF7D04FF4000E002616
:10306C00544B1868544BCDF810E0BDF80A200331CE
:10307C00033A92B2ADF80A2011F8032CD2B28DF8B3
:10308C00062011F8022CD2B28DF8072011F8012C71
:10309C00D2B28DF808209DF806C09DF807209DF847
:1030AC000870120242EA0C423A4303928DF8056012
:1030BC00E2795D68C2EBC20200EB8207BF8850F870
:1030CC00222005951783039F049A174225D05A682E
:1030DC00059FD21B4F2AFAD9E279C2EBC20200EB50
:1030EC008207BF8850F8222057835A6805925A6885
:1030FC00059FD21B072AFAD9049A520804929DF80C
:10310C0005200132D2B2172A8DF80520D0D9BDF88E
:10311C000A2092B2002AA6D197E75A68059FD21BC3
:10312C00182AFAD9E279C2EBC20200EB8207BF88F7
:10313C0050F8222057835A6805925A68059FD21B73
:10314C00452AFAD9D8E77047002B3FF47EAF4FF0F1
:10315C0000450026174A0495BDF80A300431043B9B
:10316C009BB2ADF80A3011F8043CDBB28DF8073095
:10317C0011F8033CDBB28DF8063011F8023CDBB2DF
:10318C008DF8083011F8013CDBB28DF809309DF850
:10319C0007C09DF806309DF808001B049DF80970C7
:1031AC0043EA0C633B4343EA002303938DF8056029
:1031BC007FE000BF900D0020001000E0004600BF33
:1031CC0000BF00BF00BF00BF00BF00BF00BF00BFFB
:1031DC0000BF00BF00BF00BF00BF00BF00BF00BFEB
:1031EC0000BF00BF00BF00BF00BF00BF00BF00BFDB
:1031FC0000BF00BF00BF00BF00BF00BF00BF00BFCB
:10320C0000BF00BF00BF00BF00BF00BF00BF00BFBA
:10321C0000BF00BF00BF00BF00BF00BF00BF00BFAA
:10322C0000BF00BF00BF00BF00BFE3791068C3EB55
:10323C00C30300EB8307BF8850F823305F8300463D
:10324C0000BF00BF00BF00BF00BF00BF00BF00BF7A
:10325C0000BF00BF00BF00BF00BF00BF00BF00BF6A
:10326C0000BF00BF00BF00BF00BF00BF00BF00BF5A
:10327C0000BF00BF00BF00BF00BF00BF00BF00BF4A
:10328C0000BF00BF00BF00BF00BF00BF00BF00BF3A
:10329C0000BF00BF00BF00BF00BF00BF049B5B08A6
:1032AC0004939DF805300133DBB21F2B8DF80530EC
:1032BC007ED8E3791068C3EBC30300EB8307BF88A8
:1032CC0050F823301F830398049B18427FF476AF89
:1032DC00004600BF00BF00BF00BF00BF00BF00BF63
:1032EC0000BF00BF00BF00BF00BF00BF00BF00BFDA
:1032FC0000BF00BF00BF00BFE3791068C3EBC3037E
:10330C0000EB8307BF8850F823305F83004600BF73
:10331C0000BF00BF00BF00BF00BF00BF00BF00BFA9
:10332C0000BF00BF00BF00BF00BF00BF00BF00BF99
:10333C0000BF00BF00BF00BF00BF00BF00BF00BF89
:10334C0000BF00BF00BF00BF00BF00BF00BF00BF79
:10335C0000BF00BF00BF00BF00BF00BF00BF00BF69
:10336C0000BF00BF00BF00BF00BF00BF00BF00BF59
:10337C0000BF00BF00BF00BF00BF00BF00BF00BF49
:10338C0000BF00BF00BF00BF00BF00BF00BF00BF39
:10339C0000BF00BF00BF00BF00BF00BF00BF00BF29
:1033AC0000BF00BF00BF00BF00BF00BF00BF75E77C
:1033BC00BDF80A309BB2002B7FF4CDAE45E6032D51
:1033CC0000F02B81002B3FF440AE4FF4000500269B
:1033DC00174A0495BDF80A30E079033B9BB2ADF86F
:1033EC000A300B781768DBB28DF807304B78C0EBDE
:1033FC00C000DBB28DF808308B7807EB800CDBB2A9
:10340C008DF806309DF807E09DF80830BCF804C034
:10341C001B0243EA0E439DF806E057F8200043EAEE
:10342C000E03039303318DF80560A0F81AC07CE0FD
:10343C00900D0020049B5B080493004600BF00BF66
:10344C0000BF00BF00BF00BF00BF00BF00BF00BF78
:10345C0000BF00BF00BF00BF00BF00BF00BF00BF68
:10346C0000BF00BF00BF00BF00BF00BF00BF00BF58
:10347C0000BF00BF00BF00BF00BF00BF00BF00BF48
:10348C0000BF00BF00BF00BF00BF00BF00BF00BF38
:10349C0000BF00BF00BF00BF00BF00BF00BF00BF28
:1034AC0000BF00BF00BF00BF00BF00BF00BF00BF18
:1034BC0000BF00BF00BF00BF00BF00BF00BF00BF08
:1034CC00E07917689DF80530C0EBC00007EB800C65
:1034DC00BCF804C057F820000133DBB28DF805307E
:1034EC00A0F818C0004600BF00BF00BF00BF00BF5F
:1034FC0000BF00BF00BF00BF00BF00BF00BF00BFC8
:10350C0000BF00BF00BF00BF00BF00BF00BF9DF8E1
:10351C000530182B7AD0E3791068C3EBC30300EBAA
:10352C008307BF8850F823305F830398049B1842AD
:10353C0080D1004600BF00BF00BF00BF00BF00BF6E
:10354C0000BF00BF00BF00BF00BF00BF00BF00BF77
:10355C0000BF00BFE3791068C3EBC30300EB830724
:10356C00BF8850F823301F839DF805300133DBB240
:10357C008DF80530049B5B080493004600BF00BF28
:10358C0000BF00BF00BF00BF00BF00BF00BF00BF37
:10359C0000BF00BF00BF00BF00BF00BF00BF00BF27
:1035AC0000BF00BF00BF00BF00BF00BF00BF00BF17
:1035BC0000BF00BF00BF00BF00BF00BF00BF00BF07
:1035CC0000BF00BF00BF00BF00BF00BF00BF00BFF7
:1035DC0000BF00BF00BF00BF00BF00BF00BF00BFE7
:1035EC0000BF00BF00BF00BF00BF00BF00BF00BFD7
:1035FC0000BF00BF00BF00BF00BF00BF00BF00BFC7
:10360C0000BF00BF9DF80530182B84D1BDF80A30DF
:10361C009BB2002B7FF4DDAE17E5002B3FF415AD0C
:10362C004FF400050026134A0495BDF80A30033107
:10363C00033B9BB2ADF80A3011F8033CDBB28DF8BA
:10364C00073011F8023CDBB28DF8063011F8013C62
:10365C00DBB28DF808309DF807709DF806309DF8A8
:10366C0008001B0243EA0743034303938DF80560EC
:10367C00E1E000BF900D0020004600BF00BF00BF7E
:10368C0000BF00BF00BF00BF00BF00BF00BF00BF36
:10369C0000BF00BF00BF00BF00BF00BF00BF00BF26
:1036AC0000BF00BF00BF00BF00BF00BF00BF00BF16
:1036BC0000BF00BF00BF00BF00BF00BF00BF00BF06
:1036CC0000BF00BF00BF00BF00BF00BF00BF00BFF6
:1036DC0000BF00BF00BF00BF00BF00BF00BF00BFE6
:1036EC0000BF00BF00BF00BF00BF00BF00BF00BFD6
:1036FC0000BF00BF00BF00BF00BF00BF00BF00BFC6
:10370C0000BF00BF00BF00BF00BF00BF00BF00BFB5
:10371C0000BF00BF00BF00BF00BF00BF00BF00BFA5
:10372C0000BF00BF00BF00BF00BF00BF00BF00BF95
:10373C0000BF00BF00BF00BF00BF00BF00BF00BF85
:10374C0000BF00BF00BF00BF00BF00BF00BF00BF75
:10375C0000BF00BF00BF00BF00BF00BF00BF00BF65
:10376C0000BF00BF00BF00BF00BF00BF00BF00BF55
:10377C0000BF00BF00BF00BF00BF00BF00BF00BF45
:10378C0000BF00BF00BF00BF00BF00BF00BF00BF35
:10379C0000BF00BF00BF00BF00BFE3791068C3EBE0
:1037AC00C30300EB8307BF8850F823305F830046C8
:1037BC0000BF00BF00BF00BF00BF00BF00BF00BF05
:1037CC0000BF00BF00BF00BF00BF00BF00BF00BFF5
:1037DC0000BF00BF00BF00BF00BF00BF00BF00BFE5
:1037EC0000BF00BF00BF00BF00BF00BF00BF00BFD5
:1037FC0000BF00BF00BF00BF00BF00BF00BF00BFC5
:10380C0000BF00BF00BF00BF00BF00BF00BF00BFB4
:10381C0000BF00BF00BF00BF00BF00BF00BF049BC4
:10382C005B0804939DF805300133DBB2172B8DF840
:10383C00053000F2EB80E3791068C3EBC30300EBB7
:10384C008307BF8850F823301F830398049B1842CA
:10385C007FF412AF004600BF00BF00BF00BF00BF27
:10386C0000BF00BF00BF00BF00BF00BF00BF00BF54
:10387C0000BF00BF00BF00BF00BF00BF00BF00BF44
:10388C0000BF00BF00BF00BF00BF00BF00BF00BF34
:10389C0000BF00BF00BF00BF00BF00BF00BF00BF24
:1038AC0000BF00BF00BF00BF00BF00BF00BF00BF14
:1038BC0000BF00BF00BF00BF00BF00BF00BF00BF04
:1038CC0000BF00BF00BF00BF00BF00BF00BF00BFF4
:1038DC0000BF00BF00BFE3791068C3EBC30300EB6C
:1038EC008307BF8850F823305F83004600BF00BFBA
:1038FC0000BF00BF00BF00BF00BF00BF00BF00BFC4
:10390C0000BF00BF00BF00BF00BF00BF00BF00BFB3
:10391C0000BF00BF00BF00BF00BF00BF00BF00BFA3
:10392C0000BF00BF00BF00BF00BF00BF00BF00BF93
:10393C0000BF00BF00BF00BF00BF00BF00BF00BF83
:10394C0000BF00BF00BF00BF00BF00BF00BF00BF73
:10395C0000BF00BF00BF00BF00BF00BF00BF00BF63
:10396C0000BF00BF00BF00BF00BF00BF00BF00BF53
:10397C0000BF00BF00BF00BF00BF00BF00BF00BF43
:10398C0000BF00BF00BF00BF00BF00BF00BF00BF33
:10399C0000BF00BF00BF00BF00BF00BF00BF00BF23
:1039AC0000BF00BF00BF00BF00BF00BF00BF00BF13
:1039BC0000BF00BF00BF00BF00BF00BF00BF00BF03
:1039CC0000BF00BF00BF00BF00BF00BF00BF00BFF3
:1039DC0000BF00BF00BF00BF00BF00BF00BF00BFE3
:1039EC0000BF00BF00BF00BF00BF00BF00BF00BFD3
:1039FC0000BF00BF00BF00BF00BF10E7BDF80A301A
:103A0C009BB2002B7EF492AFFFF71FBBBDF80A30C0
:103A1C009BB2002B7FF408AEFFF717BB70B5448840
:103A2C009DF810508C4218D9047A2CB16243634330
:103A3C006C43120A1B0A250AC668807901EB410106
:103A4C0002387418062810D8DFE800F0040F0804B8
:103A5C000F04040073546270A57070BDFE2A28BF59
:103A6C00FE2272546570A370F7E772546370A570F0
:103A7C00F3E7037A4A1CD2B2934270B51ED0013BD5
:103A8C0013F0FF03C4680CD0FF290FBF4FF6FF7172
:103A9C00110201F1FF31B1FBF3F30CBFB1FBF3F3F6
:103AAC009BB225468688291B89B28E4205D9297876
:103ABC005943091205F8011BF4E7027270BD0000AE
:103ACC0008B501F09FFE014B186008BD900D002059
:103ADC0038B50446154608462173012103F056FDFE
:103AEC00207B012103F063FD28460121657303F05F
:103AFC004DFD607B002103F05AFD204638BD10B50A
:103B0C000446FEF735FA2146BDE8104002F09AB99A
:103B1C0070B50E46154604460021007B03F047FDA8
:103B2C0006F07E00FFF7EBFF2846FFF7E8FF207B4F
:103B3C000121BDE8704003F03ABDF8B50F460646CA
:103B4C000021007B15461C4603F031FD07F07E007A
:103B5C00FFF7D5FF2544AC4204D014F8010BFFF756
:103B6C00CEFFF8E7307B0121BDE8F84003F01FBD24
:103B7C0038B50C4605460021007B04F07E0403F0AA
:103B8C0016FD44F08000FFF7BAFF0020FFF7B7FFE7
:103B9C0004460121287B03F00AFD204638BD70B590
:103BAC0004460D461646FFF7E3FF40EA0602294697
:103BBC002046BDE87040D2B2FFF7AABF70B50446EC
:103BCC000D461646FFF7D4FF20EA0602294620468A
:103BDC00BDE87040D2B2FFF79BBF08221021FFF75F
:103BEC00EDBFF8B5044615460F46002202211E46CD
:103BFC00FFF78EFF04220A212046FFF789FF80225F
:103C0C0014212046FFF7CBFF2A463B4612212046C3
:103C1C00FFF793FF032202212046FFF779FF41F2C1
:103C2C0088350A212046FFF7A3FF430705D4013D41
:103C3C00ADB2002DF5D104200FE000220221204668
:103C4C00FFF766FF44212046FFF792FF42213070B8
:103C5C002046FFF78DFF70700120F8BD10B50F22C4
:103C6C0002210446FFF754FF322002F049FE0221E4
:103C7C002046FFF77DFFC306F9D410BD10B52821EF
:103C8C000446FFF775FF00F00303032B08D040F048
:103C9C00030228212046BDE81040D2B2FFF738BFFE
:103CAC0010BD10B50446407B03F09AFC48BB607B0A
:103CBC00012103F07CFC322002F022FE20468022FF
:103CCC005421FFF725FF2046A9225621FFF720FF9C
:103CDC00204603225821FFF71BFF2046E8225A21D9
:103CEC00FFF716FF204640222A21FFF711FF20463E
:103CFC003D222221FFF70CFF2046BDE81040FFF7C4
:103D0C00BDBF2046FFF7AAFFD8E72DE9F74F0746BE
:103D1C001E4615469DF83080002A42D001F07E01E7
:103D2C00007B41F08009002103F041FC4846FFF77D
:103D3C00E6FE4FF0000B4FF0010A013DEDB25FFAC9
:103D4C008BF4A54222D9DCB9B8F1000F18D0424649
:103D5C00D3B2072B61B205D80AFA02F40C43E4B2D1
:103D6C000132F5E748460191FFF7C9FE3378019916
:103D7C00044023EA01031C4334700BF1010BDEE712
:103D8C004846FFF7BCFE06F80B00F6E70020FFF7ED
:103D9C00B6FE01217055387B03B0BDE8F04F03F03F
:103DAC0006BC03B0BDE8F08F2DE9F04F89B003924B
:103DBC00DDF854909DF85C200446DDE913568A46E4
:103DCC0000279DF858B00492B9F1000F3ED099F835
:103DDC0000800022022120460593FFF799FE7F22E6
:103DEC0008212046FFF794FE08EB0B1880221421C3
:103DFC002046FFF7D4FE5FFA88F8059B1221204677
:103E0C009DF84820FFF799FE42461A212046FFF7FD
:103E1C007FFE524602212046FFF77AFEBAF10C0FC4
:103E2C0004D180221A212046FFF7B9FE4FF4FA681C
:103E3C0008212046FFF79CFE039B184208D1C307BC
:103E4C0002D4B8F10108F3D104204DE0C846C0E714
:103E5C000C212046FFF78CFE10F0130F804646D144
:103E6C00DDB1D6B114212046FFF782FE337802462D
:103E7C0083423ED330702B4612212046CDF800B041
:103E8C00FFF743FF18212046FFF772FE00F00707EB
:103E9C00B9F1000F01D089F8007018F0080F2AD181
:103EAC005DB356B3049B43B33278012A03D1042F7C
:103EBC0025D1092018E022D90FBB023A2946204609
:103ECC0007ABD2B2FFF78DFE01280DD133781D441C
:103EDC0015F8022C9DF81C309A4210D115F8012CC3
:103EEC009DF81D309A420AD109B0BDE8F08F02202E
:103EFC00FAE70520F8E70320F6E70120F4E70820AD
:103F0C00F2E710B586B09DF82C40009205949DF810
:103F1C00284030220494099C0394089CCDE9013478
:103F2C000B460C21FFF740FF06B010BD70B588B0F2
:103F3C0006461C4615468DF817101AB31B78012B34
:103F4C0020D980221C21FFF739FE07238DF81F3062
:103F5C000023CDE902330DF11F03CDE9004301220B
:103F6C002B4630460DF11701FFF7CBFF012807D187
:103F7C002378022B08D19DF81F30002B18BF02208C
:103F8C0008B070BD0520FBE70220F9E713460A468E
:103F9C002621FFF7CBBF022307B50DF1030201A9C0
:103FAC008DF80330FFF7F2FF00F0FD00431E58427E
:103FBC00584103B05DF804FB2DE9F04F502A8246BE
:103FCC000F4690468BB000F23B8180221C21FFF7FC
:103FDC00F5FD93238DF81C30B8F1000F00F0B9807B
:103FEC003C78042C94BF00230123012500260BE010
:103FFC0095238DF81C30B8F1000F00F0AC803C78A4
:10400C00072C94BF00230123A8EBC60464B224EA56
:10401C00E474002B00F0A180882203218DF81E206F
:10402C0014F0070218BF012202EBE40212F0FF02A7
:10403C00E0B21AD0002B14BF4FF0030C4FF0040C5D
:10404C00944594BF01EB0C028A1806F1010EBE4494
:10405C00D2B28C4601311EF8019BC9B20DF1280B6E
:10406C00DC4491420CF80C9CF3D113B100F1080420
:10407C0064B21F2C73DD4FF070039DF81F208DF878
:10408C001D309DF81E30504653409DF8202007A946
:10409C0053409DF8212053408DF8223007220DF11A
:1040AC002303FFF79EFD0128814640F0C5800023C5
:1040BC008DF81A3003234FF009098DF81B30049446
:1040CC000DF1220B9DF81A301A2103EB0312504606
:1040DC00D2B20593FFF71CFD0022059B03920293BD
:1040EC000DF11A0301930DF11B034A460093504640
:1040FC005B4607A9FFF705FF032881464BD11C211E
:10410C005046FFF735FD810600F1968010F01F0038
:10411C0008BF2020A04240F38480431E03F0070216
:10412C0013F0070318BF012344B2C0080130184430
:10413C000AAB1844012303FA02F210F80C3C1343A7
:10414C0000F80C3C95E7972306268DF81C30234687
:10415C005AE7434649E7434656E7022160E714F025
:10416C00070918BF4FF00109E3100233DBB204F06A
:10417C0007028DF81A2002EB03128DF81D2007AAF6
:10418C00994402EB030BC3F109035FFA89F98DF82B
:10419C001B30049496E701284ED1049B20241F2B3E
:1041AC007FF769AF9DF81E30882B3DD103231A464B
:1041BC0001361A443E44D2B219460AA801330144CE
:1041CC0011F80C1CDBB2934206F8011BF4D19DF8DC
:1041DC001B60032E37D19DF81A40A4BB012259460F
:1041EC0050460DF11E03FFF7FCFC0128814623D13C
:1041FC009DF81E209BF801309A4227D19DF81F2074
:10420C009BF802309A4221D19BF800305A070ED508
:10421C000135EDB2032D96D0042D02D0022D3FF4C2
:10422C00E7AE4FF0060907E002230422C0E705EBD6
:10423C0045050135FB723D7048460BB0BDE8F08F6B
:10424C004FF00709F8E74FF00209F5E74FF00809BE
:10425C00F2E708B501460022FFF7AEFE431E5842B6
:10426C00584108BD502330B587B0ADF81430022248
:10427C000DF1160305A90546FFF7B3FC012804460A
:10428C000FD1002304222846CDE90233CDE90033B7
:10429C0005A9FFF736FE042803D0012814BF0446F5
:1042AC000224204607B030BD08B5FDF761FE01F0D1
:1042BC00BBFCFDF75DFE102101F0A0FDFDF758FEE3
:1042CC00012101F0CDFCFDF753FEBDE808400021B3
:1042DC0001F0D4BC704713B50191B0F90E1002680F
:1042EC000091546A0022B0F90C301146A04702B07C
:1042FC0010BD704710B50446102103F084F9204618
:10430C0010BD10B50446342103F07DF9204610BDD4
:10431C000EB403B503AB53F8042B0021019302F048
:10432C0071FF02B05DF804EB03B0704773B504463F
:10433C0022790846A36832B1A3B90B4902B0BDE893
:10434C00704002F02FBF094A267B094D0949647B56
:10435C00012E18BF2946CDE900140749FFF7D8FFF5
:10436C0002B070BD054AEFE729A40A0820A40A0888
:10437C0025A40A0821A40A083FA40A0818A40A08BC
:10438C00F8B504460F461646F0214FF4A0721D46B0
:10439C00FEF774F90C4B204623609DF9203084F80D
:1043AC002B7084F82F309DF9183084F82C6084F829
:1043BC0030309DF91C3084F82E5084F82D300023B9
:1043CC0084F82A30F8BD00BF78A40A082DE9F74F0D
:1043DC0090F82A30074688463BB1FDF7C9FD4146A7
:1043EC0003B0BDE8F04F01F02DBD4FF0080A4FF0BF
:1043FC00800B4FF01C095B4C5B4D97F92E6018EA53
:10440C000B0F2378B6B2BFF35B8F00F08480D80714
:10441C0009D42046FBF74AFE28B101F0F3F92860D5
:10442C002046FBF748FE09FB06F62B683344019344
:10443C002378BFF35B8FD90709D42046FBF736FEF0
:10444C0028B101F0DFF928602046FBF734FE2B6819
:10445C00019A9B5992881A8397F930602378B6B2E7
:10446C00D807BFF35B8F09D42046FBF71FFE28B19A
:10447C0001F0C8F928602046FBF71DFE09FB06F683
:10448C002B68334401932378BFF35B8FD90709D48E
:10449C002046FBF70BFE28B101F0B4F9286020464A
:1044AC00FBF709FE2B68019A9B5992881A8397F99E
:1044BC0030602378B6B2DA07BFF35B8F09D420469D
:1044CC00FBF7F4FD28B101F09DF928602046FBF7BD
:1044DC00F2FD09FB06F62B68334401932378BFF3F6
:1044EC005B8FDB0709D42046FBF7E0FD28B101F018
:1044FC0089F928602046FBF7DEFD2B68019A9B5951
:10450C009288BAF1010A5A834FEA5B0B7FF475AFBC
:10451C0003B0BDE8F08FDA0709D42046FBF7C6FDDF
:10452C0028B101F06FF928602046FBF7C4FD09FBA8
:10453C0006F62B68334401932378BFF35B8FDB07BC
:10454C0009D42046FBF7B2FD28B101F05BF92860D5
:10455C002046FBF7B0FD2B68019A9B5992885A8331
:10456C007AE700BF940D0020980D00202DE9F84348
:10457C005A4D90F92C702B78064613F0010F884693
:10458C00BFF35B8F564CBFB209D12846FBF78EFDAB
:10459C0028B101F037F920602846FBF78CFD1C236D
:1045AC005F43236803EB07092B78BFF35B8FD907B5
:1045BC0009D44A48FBF77AFD28B101F023F92060B1
:1045CC004648FBF778FD2368B9F80420DB595A8379
:1045DC0096F930702B78BFB2DA07BFF35B8F09D432
:1045EC003E48FBF763FD28B101F00CF920603B4815
:1045FC00FBF761FD1C235F43236803EB07092B7852
:10460C00BFF35B8FDB0709D43448FBF74FFD28B1B0
:10461C0001F0F8F820603148FBF74DFD2368B9F83C
:10462C000420DB595A8396F92B702B78BFB2D8072C
:10463C00BFF35B8F09D42948FBF738FD28B101F093
:10464C00E1F820602548FBF736FD1C235F43236807
:10465C0003EB07092B78BFF35B8FD90709D41F48ED
:10466C00FBF724FD28B101F0CDF820601B48FBF7C7
:10467C0022FD2368B9F80420DB5930465A834146A1
:10468C00FFF7A4FE96F92B602B78B6B2DA07BFF3CE
:10469C005B8F09D41148FBF709FD28B101F0B2F882
:1046AC0020600E48FBF707FD1C235E4327682B7820
:1046BC003744DB07BFF35B8F09D40848FBF7F6FCE4
:1046CC0028B101F09FF820600448FBF7F4FC236844
:1046DC00BA889B591A83BDE8F88300BF940D00205B
:1046EC00980D00202DE9F843444D90F92C702B784F
:1046FC00064613F0010F8846BFF35B8F404CBFB2E8
:10470C0009D12846FBF7D2FC28B101F07BF82060D8
:10471C002846FBF7D0FC1C235F43236803EB0709F7
:10472C002B78BFF35B8FDB0709D43448FBF7BEFC57
:10473C0028B101F067F820603048FBF7BCFC236817
:10474C00B9F80420DB591A8396F92B702B78BFB279
:10475C00D807BFF35B8F09D42848FBF7A7FC28B117
:10476C0001F050F820602548FBF7A5FC1C235F43A3
:10477C00236803EB07092B78BFF35B8FD90709D4A8
:10478C001E48FBF793FC28B101F03CF820601B4855
:10479C00FBF791FC2368B9F80420DB5930465A83A7
:1047AC004146FFF713FE96F92B602B78B6B2DA0769
:1047BC00BFF35B8F09D41148FBF778FC28B101F0EB
:1047CC0021F820600D48FBF776FC1C235E4327681C
:1047DC002B783744DB07BFF35B8F09D40748FBF713
:1047EC0065FC28B101F00EF820600448FBF763FC6F
:1047FC002368BA889B591A83BDE8F883940D00206E
:10480C00980D00202DE9F04104460F461E46154632
:10481C002A21BDF81880FFF7A9FE2046390AFFF7B8
:10482C0061FF2046F9B2FFF75DFF2046310AFFF722
:10483C0059FF2046F1B2FFF755FF20462B21FFF719
:10484C0095FE2046290AFFF74DFF2046E9B2FFF7F7
:10485C0049FF20464FEA1821FFF744FF20465FFA34
:10486C0088F1FFF73FFF2046BDE8F0412C21FFF710
:10487C007DBE08B5FDF77CFBBDE8084001F00CBA25
:10488C0010B50446FDF774FB2146BDE8104001F05D
:10489C001DBA000030B590F82A3004460D4685B09C
:1048AC0063B10D4B6846009300238DF804300B4B1D
:1048BC0002930123ADF80C30FFF7E2FF002D14BF7B
:1048CC00212120212046FFF751FE94F82A300BB10C
:1048DC00FFF7CFFF05B030BD64A40A0880C3C9013F
:1048EC0030B590F82A3004460D4685B063B1184BAC
:1048FC006846009300238DF80430164B0293012375
:10490C00ADF80C30FFF7BCFF36212046FFF72EFE2A
:10491C0005F003010229617616D0032916D001296E
:10492C000CD048212046FFF7DDFE0B4BE36094F8DA
:10493C002A300BB1FFF79DFF05B030BD2821204672
:10494C00FFF7D0FE054BF1E78821EBE7E821F6E70E
:10495C0064A40A0880C3C901F00040014001F000C2
:10496C002DE9F0430D1E044616461F4687B0C0F2D3
:10497C00BE80B0F90C30AB4240F3B980002AC0F2D3
:10498C00B680B0F90E30934240F3B18090F82A30E3
:10499C0063B1584B02A8029300238DF80C30564B90
:1049AC0004930123ADF81430FFF76AFFB2B2A9B239
:1049BC00501C4B1C80B2514E00909BB22046FFF70E
:1049CC0021FF94F92C8033784D4D13F0010FBFF378
:1049DC005B8F1FFA88F809D13046FBF767FB28B1CB
:1049EC0000F010FF28603046FBF765FB1C2303FB2F
:1049FC0008F82B6803EB08093378BFF35B8FDB07F0
:104A0C0009D43E48FBF752FB28B100F0FBFE2860AE
:104A1C003A48FBF750FB2B68B9F8042053F80830E0
:104A2C001A8394F92B8033781FFA88F8D807BFF3D0
:104A3C005B8F09D43148FBF739FB28B100F0E2FE5B
:104A4C0028602E48FBF737FB1C2303FB08F82B6868
:104A5C0003EB08093378BFF35B8FD90709D42748D8
:104A6C00FBF724FB28B100F0CDFE28602348FBF7B0
:104A7C0022FB2B68B9F8042053F80830390A5A8302
:104A8C002046FFF7A3FCF9B22046FFF79FFC94F9F0
:104A9C002B703378BFB2DA07BFF35B8F09D417489A
:104AAC00FBF704FB28B100F0ADFE28601348FBF7C0
:104ABC0002FB1C235F432B6803EB07083378BFF31F
:104ACC005B8FDB0709D40D48FBF7F0FA28B100F037
:104ADC0099FE28600948FBF7EEFA2B68B8F8042019
:104AEC00DB591A8394F82A300BB1FFF7C2FE07B0DA
:104AFC00BDE8F08364A40A0880C3C901940D0020AA
:104B0C00980D00202DE9F04F04461F46B4F90C30E7
:104B1C0087B08B420D461046BDF840A040F3C880CC
:104B2C00B4F90E30934240F3C380384498421FFAD4
:104B3C0082F8C4BFA3EB08031FB294F82A3063B108
:104B4C005D4B02A8029300238DF80C305B4B049351
:104B5C000123ADF81430FFF793FE08F1FF30384411
:104B6C00ABB280B2564E4246194600902046FFF733
:104B7C0049FE94F92C8033784FEA1A2913F0010F6F
:104B8C00BFF35B8F4F4D5FFA8AFA1FFA88F809D191
:104B9C003046FBF78BFA28B100F034FE2860304623
:104BAC00FBF789FA1C2303FB08F82B6803EB080BB3
:104BBC003378BFF35B8FDA0709D44148FBF776FAF9
:104BCC0028B100F01FFE28603D48FBF774FA2B68F3
:104BDC00BBF8042053F808301A8394F92B803378EF
:104BEC001FFA88F8DB07BFF35B8F09D43448FBF757
:104BFC005DFA28B100F006FE28603148FBF75BFA3D
:104C0C001C2303FB08F82B6803EB080B3378BFF36A
:104C1C005B8FD80709D42A48FBF748FA28B100F073
:104C2C00F1FD28602648FBF746FA2B68BBF80420F8
:104C3C0053F808305A83013F3FB2791C08D04946DB
:104C4C002046FFF7C3FB51462046FFF7BFFBF2E7B8
:104C5C0094F92B703378BFB2DA07BFF35B8F09D4AA
:104C6C001748FBF723FA28B100F0CCFD2860144854
:104C7C00FBF721FA1C235F432B6803EB07083378FF
:104C8C00BFF35B8FDB0709D40D48FBF70FFA28B194
:104C9C0000F0B8FD28600A48FBF70DFA2B68B8F84D
:104CAC000420DB591A8394F82A300BB1FFF7E1FD8D
:104CBC0007B0BDE8F08F00BF64A40A0880C3C90127
:104CCC00940D0020980D00202DE9F04F04461F464E
:104CDC00B4F90C3087B08B4208461546BDF840A09D
:104CEC0040F3C780B4F90E20AA4240F3C280384486
:104CFC0098421FFA81F8C4BFA3EB08031FB294F8C3
:104D0C002A3063B15C4B02A8029300238DF80C305F
:104D1C005A4B04930123ADF81430FFF7B1FD08F1A1
:104D2C00FF33AAB2564E3B4441469BB220460092FA
:104D3C00FFF768FD94F92C8033784FEA1A2913F0A9
:104D4C00010FBFF35B8F4F4D5FFA8AFA1FFA88F899
:104D5C0009D13046FBF7AAF928B100F053FD2860C1
:104D6C003046FBF7A8F91C2303FB08F82B6803EB70
:104D7C00080B3378BFF35B8FDA0709D44048FBF795
:104D8C0095F928B100F03EFD28603D48FBF793F9FA
:104D9C002B68BBF8042053F808301A8394F92B8045
:104DAC0033781FFA88F8DB07BFF35B8F09D43448DC
:104DBC00FBF77CF928B100F025FD28603048FBF7A3
:104DCC007AF91C2303FB08F82B6803EB080B3378E8
:104DDC00BFF35B8FD80709D42948FBF767F928B1D3
:104DEC0000F010FD28602648FBF765F92B68BBF82E
:104DFC00042053F808305A83013F3FB2791C08D085
:104E0C0049462046FFF7E2FA51462046FFF7DEFA04
:104E1C00F2E794F92B703378BFB2DA07BFF35B8FEC
:104E2C0009D41748FBF742F928B100F0EBFC2860D5
:104E3C001348FBF740F91C235F432B6803EB07086F
:104E4C003378BFF35B8FDB0709D40D48FBF72EF9E2
:104E5C0028B100F0D7FC28600948FBF72CF92B6827
:104E6C00B8F80420DB591A8394F82A300BB1FFF7F9
:104E7C0000FD07B0BDE8F08F64A40A0880C3C90127
:104E8C00940D0020980D00202DE9F04F0446984613
:104E9C00B4F90C3089B08B420D461046BDF9487000
:104EAC00BDF84C9040F3D880B4F90E20824240F308
:104EBC00D38045449D428EB2C8BF9B1B85B23844FB
:104ECC00C8BF0FFA83F8904294F82A30C4BF571B1E
:104EDC003FB263B1624B04A8049300238DF81430E5
:104EEC00604B06930123ADF81C30FFF7C9FC691E1B
:104EFC003944731E89B20091434431465A4E2A46B6
:104F0C009BB22046FFF77EFC94F92CA033784FEA35
:104F1C00192B13F0010FBFF35B8F544D5FFA89F916
:104F2C001FFA8AFA09D13046FBF7C0F828B100F015
:104F3C0069FC28603046FBF7BEF81C2303FB0AFA19
:104F4C002B68534403933378BFF35B8FDB0709D48F
:104F5C004548FBF7ABF828B100F054FC28604248F8
:104F6C00FBF7A9F82B68039A53F80A3092881A8336
:104F7C0094F92BA033781FFA8AFAD807BFF35B8F0A
:104F8C0009D43948FBF792F828B100F03BFC2860B3
:104F9C003548FBF790F81C2303FB0AFA2B685344A3
:104FAC0003933378BFF35B8FD90709D42E48FBF7F3
:104FBC007DF828B100F026FC28602B48FBF77BF825
:104FCC002B68039A53F80A3092885A83002F13DD0A
:104FDC00C246BAF1000F0CDD59462046FFF7F6F930
:104FEC000AF1FF3A49462046FFF7F0F90FFA8AFA20
:104FFC00EFE7013F3FB2E9E794F92B703378BFB28A
:10500C00DA07BFF35B8F09D41748FBF74FF828B1C9
:10501C0000F0F8FB28601448FBF74DF81C235F43A5
:10502C002B6803EB07083378BFF35B8FDB0709D4DE
:10503C000D48FBF73BF828B100F0E4FB28600A4868
:10504C00FBF739F82B68B8F80420DB591A8394F86D
:10505C002A300BB1FFF70DFC09B0BDE8F08F00BF93
:10506C0064A40A0880C3C901940D0020980D002087
:10507C0030B5044690F92D0085B0002809DD0121DA
:10508C0080B202F083FA94F92D00002180B202F074
:10509C008EFA94F92C00012180B202F077FA94F97F
:1050AC002B00012180B202F071FA94F82A50002DE5
:1050BC0000F0AC8194F92B50FCF75AFFADB22946A5
:1050CC0000F0C0FD94F92D00002818DD012180B2FC
:1050DC0002F06DFA052001F013FC94F92D0000216B
:1050EC0080B202F064FA142001F00AFC94F92D004D
:1050FC00012180B202F05BFA962001F001FC94F8D9
:10510C002A3063B1CB4B6846009300238DF80430F2
:10511C00C94B02930123ADF80C30FFF7B1FBEF2123
:10512C002046FFF723FA03212046FFF7DBFA802104
:10513C002046FFF7D7FA02212046FFF7D3FACF21FA
:10514C002046FFF713FA00212046FFF7CBFAC121C6
:10515C002046FFF7C7FA30212046FFF7C3FAED21AE
:10516C002046FFF703FA64212046FFF7BBFA032120
:10517C002046FFF7B7FA12212046FFF7B3FA812138
:10518C002046FFF7AFFAE8212046FFF7EFF985211B
:10519C002046FFF7A7FA00212046FFF7A3FA782153
:1051AC002046FFF79FFACB212046FFF7DFF9392184
:1051BC002046FFF797FA2C212046FFF793FA00219F
:1051CC002046FFF78FFA34212046FFF78BFA022195
:1051DC002046FFF787FAF7212046FFF7C7F9202171
:1051EC002046FFF77FFAEA212046FFF7BFF900219E
:1051FC002046FFF777FA00212046FFF773FAC0210B
:10520C002046FFF7B3F923212046FFF76BFAC121A3
:10521C002046FFF7ABF910212046FFF763FAC521B2
:10522C002046FFF7A3F93E212046FFF75BFA282121
:10523C002046FFF757FAC7212046FFF797F986213A
:10524C002046FFF74FFA36212046FFF78FF9482109
:10525C002046FFF747FA3A212046FFF787F95521F8
:10526C002046FFF73FFAB1212046FFF77FF90021D6
:10527C002046FFF737FA18212046FFF733FAB621FC
:10528C002046FFF773F908212046FFF72BFA8221FD
:10529C002046FFF727FA27212046FFF723FAF221B1
:1052AC002046FFF763F900212046FFF71BFA262161
:1052BC002046FFF75BF901212046FFF713FAE021A6
:1052CC002046FFF753F90F212046FFF70BFA312147
:1052DC002046FFF707FA2B212046FFF703FA0C2193
:1052EC002046FFF7FFF90E212046FFF7FBF90821B6
:1052FC002046FFF7F7F94E212046FFF7F3F9F1218D
:10530C002046FFF7EFF937212046FFF7EBF907218D
:10531C002046FFF7E7F910212046FFF7E3F90321B8
:10532C002046FFF7DFF90E212046FFF7DBF90921B4
:10533C002046FFF7D7F900212046FFF7D3F9E121EA
:10534C002046FFF713F900212046FFF7CBF90E2179
:10535C002046FFF7C7F914212046FFF7C3F90321B4
:10536C002046FFF7BFF911212046FFF7BBF90721B3
:10537C002046FFF7B7F931212046FFF7B3F9C121D9
:10538C002046FFF7AFF948212046FFF7ABF908217B
:10539C002046FFF7A7F90F212046FFF7A3F90C21B0
:1053AC002046FFF79FF931212046FFF79BF9362164
:1053BC002046FFF797F90F212046FFF793F91121AB
:1053CC002046FFF7D3F894F82A300BB1FFF751FAC7
:1053DC00782001F095FA94F82A3063B1154B6846A1
:1053EC00009300238DF80430134B02930123ADF886
:1053FC000C30FFF745FA29212046FFF7B7F894F84F
:10540C002A300BB1FFF735FA05B030BD94F93000F6
:10541C00012180B202F0BAF894F92E00012180B279
:10542C0002F0B4F894F92F00294680B202F0AEF8DD
:10543C0048E600BF64A40A0880C3C90108B5024B42
:10544C001B689B6C019308BDC001060808B5024B94
:10545C001B681B68019308BDD801060808B5024BF0
:10546C001B681B69019308BDD801060808B5024BDF
:10547C001B685B69019308BDD801060808B5024B8F
:10548C001B689B69019308BDD801060808B5024B3F
:10549C001B68DB69019308BDD801060808B5024BEF
:1054AC001B681B6A019308BDD801060808B5024B9E
:1054BC001B681B68019308BDB401060808B5024BB4
:1054CC001B689B68019308BDB401060808B5024B24
:1054DC001B68DB68019308BDB401060808B5024BD4
:1054EC001B681B69019308BDB401060808B5024B83
:1054FC001B685B69019308BDB401060808B5024B33
:10550C001B68DB69019308BDB401060808B5024BA2
:10551C001B681B6A019308BDB401060808B5024B51
:10552C001B685B6A019308BDB401060808B5024B01
:10553C001B68DB6B019308BDB401060808B5024B70
:10554C001B685B68019308BDBC01060808B5024BDB
:10555C001B689B68019308BDBC01060808B5024B8B
:10556C001B68DB69019308BDBC01060808B5024B3A
:10557C001B681B6A019308BDBC01060808B5024BE9
:10558C001B681B6B019308BDBC01060808B5024BD8
:10559C001B689B6C019308BDBC01060808B5024B47
:1055AC001B68DB6C019308BDAC01060808B5024B07
:1055BC001B689B6D019308BDAC01060808B5024B36
:1055CC001B68DB6D019308BDAC01060808B5024BE6
:1055DC001B681B6E019308BDAC01060808B5024B95
:1055EC001B685B6E019308BDAC01060808B5024B45
:1055FC001B689B6E019308BDAC01060808B5024BF5
:10560C001B68DB6E019308BDAC01060808B5024BA4
:10561C001B681B6F019308BDAC01060808B5024B53
:10562C001B685B6F019308BDAC01060808B5034B02
:10563C001B68D3F88030019308BD0000AC0106084C
:10564C0008B5034B1B68D3F89030019308BD0000DC
:10565C00AC01060808B5024B1B689B69019308BD99
:10566C00C401060808B5024B1B681B6A019308BDF0
:10567C00C401060808B5024B1B685B6A019308BDA0
:10568C00C401060808B5024B1B689B6A019308BD50
:10569C00C401060808B5024B1B68DB6A019308BD00
:1056AC00C401060808B5024B1B681B6B019308BDAF
:1056BC00C401060808B5024B1B685B6B019308BD5F
:1056CC00C401060808B5024B1B689B6B019308BD0F
:1056DC00C401060808B5024B1B681B6C019308BD7E
:1056EC00C401060808B5024B1B68DB6C019308BDAE
:1056FC00C401060808B5024B1B68DB68019308BDA2
:10570C00D001060808B5024B1B68DB69019308BD84
:10571C00D001060808B5024B1B681B6A019308BD33
:10572C00D001060808B5024B1B685B6A019308BDE3
:10573C00D001060808B5024B1B689B6A019308BD93
:10574C00D001060808B5024B1B68DB6A019308BD43
:10575C00D001060808B5024B1B685B6C019308BDB1
:10576C00D001060808B5024B1B689B6C019308BD61
:10577C00D001060808B5024B1B68DB6C019308BD11
:10578C00D001060808B5024B1B685B6D019308BD80
:10579C00D001060808B5024B1B681B6F019308BDAE
:1057AC00D001060808B5024B1B685B68019308BD65
:1057BC009C01060808B5024B1B68DB68019308BD09
:1057CC009C01060808B5024B1B681B69019308BDB8
:1057DC009C01060808B5024B1B685B69019308BD68
:1057EC009C01060808B5024B1B689B6D019308BD14
:1057FC009C01060808B5024B1B685B6E019308BD43
:10580C009C01060808B5024B1B681B68019308BD78
:10581C00B001060808B5024B1B689B68019308BDD4
:10582C00B001060808B5024B1B68DB68019308BD84
:10583C00B001060808B5024B1B681B69019308BD33
:10584C00B001060808B5024B1B685B69019308BDE3
:10585C00B001060808B5024B1B685B68019308BDD4
:10586C00A801020808B5024B1B689B68019308BD90
:10587C00A801020808B5024B1B68DB68019308BD40
:10588C00A801020808B5024B1B681B69019308BDEF
:10589C00A801020808B5024B1B689B69019308BD5F
:1058AC00A801020808B5024B1B68DB69019308BD0F
:1058BC00A801020808B5024B1B685B6B019308BD7D
:1058CC00A801020808B5024B1B689B68019308BD30
:1058DC00CC01060808B5024B1B68DB68019308BDB8
:1058EC00CC01060808B5024B1B685B69019308BD27
:1058FC00CC01060808B5024B1B681B6A019308BD56
:10590C00CC01060808B5024B1B685B6A019308BD05
:10591C00CC01060808B5024B1B681B6B019308BD34
:10592C00CC01060808B5024B1B68DB6B019308BD64
:10593C00CC01060808B5024B1B685B68019308BDD7
:10594C00C801060808B5024B1B689B68019308BD8B
:10595C00C801060808B5024B1B68DB68019308BD3B
:10596C00C801060808B5024B1B681B69019308BDEA
:10597C00C801060808B5024B1B685B69019308BD9A
:10598C00C801060808B5024B1B689B69019308BD4A
:10599C00C801060808B5024B1B68DB69019308BDFA
:1059AC00C801060808B5024B1B681B6A019308BDA9
:1059BC00C801060808B5024B1B681B6B019308BD98
:1059CC00C801060808B5024B1B685B6B019308BD48
:1059DC00C801060808B5024B1B681B6C019308BD77
:1059EC00C801060808B5024B1B685B6C019308BD27
:1059FC00C801060808B5024B1B681B68019308BD5B
:105A0C00A401060808B5024B1B685B68019308BD2E
:105A1C00A401060808B5024B1B685B69019308BD1D
:105A2C00A401060808B5024B1B68DB6C019308BD8A
:105A3C00A401060808B5024B1B685B6D019308BDF9
:105A4C00A401060808B5024B1B689B6D019308BDA9
:105A5C00A401060808B5034B1B68D3F890300193DA
:105A6C0008BD0000A401060808B5034B1B68D3F859
:105A7C009C30019308BD0000A401060808B5034B37
:105A8C001B68D3F8B430019308BD0000A4010608CC
:105A9C0008B5024B1B681B68019308BDA0010608E2
:105AAC0008B5024B1B685B68019308BDA001060892
:105ABC0008B5024B1B689B68019308BDA001060842
:105ACC0008B5024B1B689B69019308BDA001060831
